:400000000080002011000000ED060000ED06000008B5044B1A6803F53F5302331A6000F085FB00BFFA46004010B5054C237833B9044B13B10448AFF300800123237010BD11
:400040005081FF1F0000000050160000084B10B51BB108490848AFF300800848036803B910BD074B002BFBD0BDE81040184700BF000000005481FF1F50160000C880FF1F26
:400080000000000008B500F0E9FB414B18701B78303B372B7BD8DFE803F02024282C304353577A7A7A7A7A7A7A7A7A7A7A7A7A7A5B7A7A7A7A7A7A7A7A7A7A7A7A627A7A64
:4000C0007A667A7A7A7A7A7A7A7A7A7A7A7A7A7A7A1C01222F4B1A7008BD01222D4B5A7008BD01222B4B9A7008BD0122294BDA7008BD0122274B1A7108BD6922264B1A704F
:40010000002000F059FD002000F05CFD002000F0C1FD002000F0B2FD00221E4B5A7108BD002000F049FD002000F04CFD002000F0B1FD002000F0A2FD0022164B9A7008BDDA
:400140000022144B5A7108BD0022124B5A7108BD00F010FCC043C0B200F000FC08BD01220C4B9A7108BD0B4BDB7913F0FF0F07D041F27C5000F0AEFD0022064BDA7108BD44
:400180004FF4FA6000F0A6FD0122024BDA7108BD9481FF1F6C81FF1FCC80FF1F10B511E00F4C636825336360606880B200F0B8FCA3682533A360A06880B200F0ABFC5020AB
:4001C00000F0B6FB064B5A6841F252139A42E7D9012000F05FFD012000F050FD10BD00BFCC80FF1F10B511E00E4C6368253B6360606880B200F094FCA368253BA360A06868
:4002000080B200F087FC502000F092FB054B5B68B3F5676FE8D2012000F03CFD012000F02DFD10BDCC80FF1F08B562B600F008FB634800F061FB00F013FD002000F02AFD2F
:40024000002000F01BFD002000F0B6FC002000F0B9FC00F08FFC5B4CA06880B200F05AFC606880B200F05CFC00F064FD41F27C5000F030FD002000F033FD002000F068FDC9
:40028000514B1B7813F0FF0F13D0402000F0CCF84D4C04F1080502464C49284600F0B4FD284600F0FDFA4FF47A7000F041FB00232370454B5B7813F0FF0F21D0414B9B6828
:4002C000B3F50C6F0ED03F4B4FF47F645C604FF40C60986000F01EFC204600F021FC642000F026FB012000F0D5FC012000F0C6FC6922344B1A70344B01225A7100225A7036
:40030000314B5B7913F0FF0F0FD02E4C207800F053FC207800F056FC2378FF2B05D0193323704FF47A7000F003FB274B9B7813F0FF0F1FD0234B9B68B3F50C6F0ED0214B5B
:400340004FF47F645C604FF40C60986000F0E2FB204600F0E5FB642000F0EAFA022000F099FC022000F08AFC642000F025FC642000F028FC144B1B7913F0FF0F01D0FFF762
:4003800031FF114BDB7813F0FF0F01D0FFF706FF0D4B9B7913F0FF0F3FF472AF012000F0D7FC45F6CC3000F09BFC40F6980000F0BFFA002000F094FC0022034B9A715FE736
:4003C00085000000CC80FF1F6C81FF1F5416000038B5054600240134B4F5FA6F04D1064800F05EFA002038BD0121284600F0CAFA0028F0D1012038BD6816000038B505467D
:4004000000240134B4F5FA6F04D1064800F048FA002038BD0021284600F0B4FA0028F0D1012038BD6816000038B50446FFF7E6FF5E2000F003FB00F0E5FA2046FFF7C8FFCD
:40044000002000F027FB0546002000F023FB044600F0D8FA14EB051000D53F30C0F3871038BD00BFFEE700BFF0B40022174611E050F82760F3B226F0FF0608E001EB42050D
:4004800011F812406D78A5550132013BDBB2002BF4D101371D2FEBD9F0BC7047064B1B78DBB203F00701054A11701B09013213704422034B1A707047CF0100496E58004041
:4004C0007658004008B50A46002100F094FC08BD38B50922284B1A801823284A13701925023215800232137040F2DF1102321180023213700222224B1A7008224FF04023E3
:400500001A70032103F5007319701E4B1B78DBB21D490B701D4B1A8041F25122023B1A8000240CE01A4B1B7803F0010343EA440404F003044FF4F07000F016FC013D0DB120
:40054000032CEFD115B90320FFF78CFF114B4FF480721A8007221A7000220F490A704820023108701A700222033B1A700B4A137843F00703137038BD804000408240004028
:400580000043004008010049A146004022420040254200400440004006400040A243004008B500F01DFC08BD38B572B63A4A137843F00403137000240CE0384D630019192F
:4005C0004A0011462A44084691882858FFF77AFF0134E4B2072CF0D900240BE02F49A3001819420088188022416B006BFFF7D8FF0134E4B2002CF1D029494FF09040FFF7DD
:4006000033FF284A137843F0020313701032137843F002031370244C237843F040032370A2F58632513A137843F01003137008221E491F48FFF7B4FF08221E491E48FFF778
:40064000AFFF08221D491E48FFF7AAFF08221D491D48FFF7A5FF08221C491D48FFF7A0FF0A221C491C48FFF79BFF1C4A137843F0080313701A4D61232B70FFF729FF8123A0
:400680002B700122174B1A70FFF708FF0E2221461548FFF785FF38BDE8460040F01700007800004803500140A043004004060048025100400C060048C25100401406004850
:4006C000F25100401C0600481251004024060048225100402C06004830510040224300400048004004000840B043004008B500F04BFB03680C2B00D1FEE7FEE708B5094B1D
:400700001A681044084BC31A802B02DC054B186005E000F039FB0C2303604FF0FF32104608BD00BFD880FF1FA081FF1F08B5104E104D16E029686B68AC68002204E051F893
:40074000040B43F8040B0432A242F8D1E868002203E0002143F8041B04328242F9D11035013E002EE6D100F015FBFFF75DFDFEE7010000008418000008B5104A104B1A6082
:40078000104A136843F40073136000230AE0032B03D80D4A52F8231000E00C490C4A42F8231001332F2BF2D90A4B1A780A4B1A70074A0A4B1A60FFF7F7FE08BD0004FA0573
:4007C0000CED00E014ED00E000000000ED0600000080FF1FBC760040C080FF1F08ED00E07222084B1A70202201331A700622A3F5B0731A70472210331A70002251331A70C5
:40080000704700BF8565004010B500F0B5FA04460A4A137843F0200313700132137843F010031370FF3A137843F01003137000F071F8204600F0A4FA10BD00BF956500408B
:4008400008B5054B1B7823B9FFF7CAFF0122024B1A70FFF7D9FF08BD8081FF1F084B1B78DBB213F0200F06D0064A1078C0B213F01E0F02D17047002070470020704700BFA5
:400880006665004045650040034B1B7813F0040FFAD1024B18707047676400404764004038B5074B1B782BB938BDFFF7EDFF0134A4B201E005460024285D0028F5D138BD2F
:4008C0008081FF1F014B1B681864704708ED00E04001C0B2014B1870704700BF00E400E00122014B1A60704700E100E00122014B1A60704780E100E010B50446FFF7F6FF05
:400900002046FFF7DFFF0720FFF7E2FFFFF7E8FF10BD00BF054A137843F0020313701032137843F002031370704700BFA243004010B5044605E0084B186800F015FAA4F5FF
:400940000044B4F5004FF6D8034B586800FB04F000F00AFA10BD00BFDC80FF1F044A137803F0FD03400000F0020018431070704720510040024B1878C0F34000704700BFEF
:40098000215100401A4B1B78DBB2102B29D1194B1B7813F0080F26D14FF40042164B1A604000C0B229B140F001004922104B1A7002E045220E4B1A70104B187001220133F0
:4009C0001A700F4B1B7813F0010FFAD00C4B1B7803F00A030A2B08D11022054B1A700320704702207047012070470020704700BF9881FF1FD949004080E100E0D849004043
:400A0000D74900400A4B1B7813F0040F0ED01023074A13700421023A1170064A1370064B1B7813F0210FFAD00020704702207047D94900409881FF1FD7490040114B1B7845
:400A400013F0040F1BD0104B18700422013B1A7046220E4B1A700E4B1B7813F0010FFAD00B4B1B7813F0020F04D16022074B1A70002070476022054B1A7003207047022033
:400A8000704700BFD9490040D84900409881FF1FD7490040114B1B7813F0040F1BD0104B1B78DBB2492B05D100220E4B1A704A220B4B1A700B4B1B7813F0010FFAD00A4B45
:400AC0001B78DBB218B11021064A117004E06021034A117000E0002318467047D94900409881FF1FD7490040D8490040024A137843F080031370704779650040014B18809D
:400B0000704700BF106A0040014B1880704700BF906A0040014B1880704700BF506A0040014B1880704700BF706A004008B5104A137803F0C00343F0090313701F32137833
:400B400043F0010313700132137843F0010313704BF68030FFF7D2FF4BF68030FFF7D4FF0020FFF7D7FF0020FFF7DAFF08BD00BF7965004008B5054B1B7823B9FFF7D6FF0D
:400B80000122024B1A70FFF7B1FF08BD8281FF1F024A137843F080031370704773640040014B1870704700BF03640040014B1870704700BF43640040014B1870704700BF65
:400BC00023640040014B1870704700BF33640040014B1870704700BF83640040014B1878704700BF63640040014B1878704700BF5364004008B501E0FFF7F6FFFFF7EEFF8E
:400C000010F0100FF8D108BD10B5134A137803F0C00343F009031370104C237843F001032370FF20FFF7BCFFFF20FFF7BFFF0020FFF7C2FF0020FFF7C5FF0020FFF7C8FFF0
:400C400000F09AF8237843F01003237000F098F8FFF7D0FF10BD00BF736400409364004008B5054B1B7823B9FFF7CEFF0122024B1A70FFF78DFF08BD8381FF1F044A1378E4
:400C800003F09F03400100F0600018431070704700510040044A137803F0E703C00000F0180018431070704720510040024A137843F080031370704778650040014B188062
:400CC000704700BF0C6A0040014B1880704700BF8C6A0040014B1880704700BF4C6A0040014B1880704700BF6C6A004008B5104A137803F0C00343F0090313701E32137883
:400D000043F0010313700132137843F0010313704BF68030FFF7D2FF4BF68030FFF7D4FF0020FFF7D7FF0020FFF7DAFF08BD00BF7865004008B5054B1B7823B9FFF7D6FF4C
:400D40000122024B1A70FFF7B1FF08BD8481FF1F044A137803F0E703C00000F01800184310707047005100400230800803D000BF01380046FCD17047EFF3108072B67047AA
:400D800080F31088704700BF014B1868704700BF4C81FF1F0E4B70B51E460E4C0025E41AA410A54204D056F8253098470135F8E700F056FD084B094C1E46E41AA4100025FA
:400DC000A54204D056F8253098470135F8E770BD6C1800006C1800006C1800007418000010B5431E0A44914204D011F8014B03F8014FF8E710BD03460244934202D003F8C4
:400E0000011BFAE7704700000EB400B54FF402719CB0ADF814106FF00041049107914FF6FF711DAB02900690084853F8042BADF81610006802A9019300F064F8029B002203
:400E40001A701CB05DF804EB03B070474C81FF1F2DE9F0478E6882469E420C46914698463ED88A8912F4906F3AD02568096902236F1A656905EB450595FBF3F57B1C43440E
:400E80009D4238BF1D4653050FD5294600F040FB064698B13A462169FFF7A2FFA38923F4906343F08003A38113E02A4600F08EFB064670B92169504600F0DEFA0C23CAF8B3
:400EC0000030A3894FF0FF3043F04003A381BDE8F08726613E44266046466561ED1BA560464528BF464649463246206800F0A8FAA36800209B1BA36023681E442660BDE869
:400F0000F08700002DE9F04F9DB003938B8980461C060D4616460DD50B695BB9402100F0F7FA2860286118B90C23C8F80030CDE040236B610023099320238DF82930DFF817
:400F40009CB130238DF82A3037463C4614F8013B1BB9B7EB060910D003E0252BF9D02746F3E74B46324629464046FFF771FF013000F0A780099B4B4409933B78002B00F0BA
:400F8000A08000234FF0FF3204930793059206938DF853301A930126052221784E4800F041FA671C049B38B14B4A3C46801A06FA00F018430490EFE7D90644BF20228DF8A6
:400FC00053201A0744BF2B228DF8532022782A2A03D0079A00210A200BE0039A111D12680391002A10DA524243F00200079204900BE027463B780134303B092B03D800FBE5
:4010000002320121F5E701B107923B782E2B1ED17B782A2B0AD1039B02371A1D1B680392002BB8BF4FF0FF33059310E0002319460593781C0A2407463A780130303A092AAB
:4010400003D804FB01210123F5E703B1059103223978224800F0E6F940B14023CBEB000003FA00F0049B013718430490397806221B487E1C8DF8281000F0D4F988B1194B71
:4010800033B9039B073323F007030833039314E003AB00932A46144B04A94046AFF3008007E003AB00932A460F4B04A9404600F093F8B0F1FF3F824603D0099B5344099334
:4010C00042E7AB895B0601D4099801E04FF0FF301DB0BDE8F08F00BF2C180000321800003618000000000000510E00002DE9F04791461F460A698B6806469342B8BF1346A2
:40110000C9F8003091F843200C46DDF8208012B10133C9F800302368990642BFD9F800300233C9F80030256815F0060510D104F1190A07E00123524639463046C04701306B
:401140001AD00135E368D9F800209B1A9D42F1DB94F843302268003318BF012392060FD5E118302081F843005A1C94F845102244023382F8431003E04FF0FF30BDE8F0874F
:4011800004F1430239463046C0470130F4D02268D9F80050E36802F00602042A08BF5D1B2269A3680CBF25EAE57500259342C4BF9B1AED184FF000091A344D4509D0012381
:4011C000224639463046C0470130D5D009F10109F3E70020BDE8F0872DE9F04317460A7E85B06E2A984606460C460C9B01F1430E00F0AE8011D8632A22D009D8002A00F0B9
:40120000BB80582A40F0CA8081F84520834955E0642A1ED0692A1CD0C0E0732A00F0B08009D86F2A2ED0702A40F0B8800A6842F020020A603EE0752A24D0782A3AD0ADE0AC
:401240001A6801F14205111D1960136884F84230A8E021681A6811F0800F02D0111D196008E011F0400F02F10401196002D0B2F9003000E01368002B3CDA2D225B4284F8AD
:40128000432037E021681A6811F0800F02D0111D196007E011F0400F02F10401196001D0138800E01368227E5C496F2A14BF0A2208221BE078225A4984F845202268186807
:4012C00012F0800F00F104051D6003D1550601D5038800E00368D00744BF42F0200222601BB9226822F0200222601022002084F8430001E049490A226568002DA56008DBB5
:40130000206820F0040020602BB9002D7DD175460CE0002B79D07546B3FBF2F002FB1033CB5C05F8013D03460028F5D1082A0BD12368DA0708D5236962689A42DEBF30237A
:4013400005F8013C05F1FF35C5EB0E0323612EE008681A6810F0800F496903D0101D1860136808E010F0400F02F104001860136801D0198000E0196000232361754616E054
:401380001A68111D1960156800216268284600F049F808B1401B6060636804E004F1420584F8422001232361002384F84330CDF800803B4603AA21463046FFF797FE01309A
:4013C00002D14FF0FF3026E023692A4639463046C0470130F5D023689B0710D5002504F1190907E001234A4639463046C0470130E7D00135E368039A9B1A9D42F2DBE06824
:40140000039B9842B8BF184605E00B7804F1420584F842308AE705B0BDE8F0833D1800004E18000010B5C9B202449042034605D01C7801308C42F8D1184610BD002010BDEA
:40144000884210B501EB020301D8421E0BE09842FBD28118D21AD34204D013F8014D01F8014DF8E710BD994204D011F8014B02F8014FF8E710BD000038B50546002944D0F8
:4014800051F8043C0C1F002BB8BFE41800F0D4F81E4A1368114613B96360146030E0A3420DD92268A018834201BF18685B681218226063600C6023E0A24203D813465A6844
:4014C000002AF9D118681918A1420BD12168014458188242196013D110685268014419605A600DE002D90C232B6009E021686018824201BF106852680918216062605C603D
:401500002846BDE8384000F098B838BD8C81FF1F70B5CD1C25F0030508350C2D38BF0C25002D064601DBA94202D90C23336046E000F082F8234B1C681A462146A1B10B680C
:401540005B1B0ED40B2B03D90B60CC18CD501EE08C420BBF63684B681360636018BF0C4615E00C464968E9E7174C23681BB9304600F052F820602946304600F04DF8431CEF
:4015800018D0C41C24F00304A0420DD12560304600F053F804F10B00231D20F00700C31A0ED05A42E25070BD211A304600F034F80130EBD10C233360304600F03EF800200D
:4015C00070BD00BF8C81FF1F8881FF1FF8B5074615460E4621B91146BDE8F840FFF798BF1AB9FFF749FF2846F8BD00F027F885420ED929463846FFF78BFF044650B1314689
:401600002A46FFF7EDFB31463846FFF735FF01E03046F8BD2046F8BD38B5064C0023054608462360FFF76AF8431C02D1236803B12B6038BD9C81FF1F7047704751F8040C4D
:401640000028BEBF091851F8043CC018043870470000000044697374616E63696120313A2025640A0D0000005469656D706F206578656469646F0D0A000000007368696644
:401680007420253032580A0D00000000436865636B2030783138203D3E2025640D0A0000436865636B2030783139203D3E2025640D0A0000426974205265706C6163656D63
:4016C000656E742028737461676520313029206973205355434345535346554C0D0A0000426974205265706C6163656D656E74202873746167652031302920697320464112
:40170000494C5552450D0A005B4552524F525D20546865206E65772061646472657373206D757374206265206F74686572207468616E2030783038210D0A00005B45525295
:401740004F525D20546865206E65772061646472657373206D7573742062652030783066206F72206C6F776572210D0A000000007374616765310D0A0000000073746167FF
:4017800065320D0A000000007374616765330D0A000000007374616765340D0A000000007374616765350D0A000000007374616765360D0A000000007374616765370D0A9B
:4017C000000000007374616765380D0A00000000655F667573655F737461676539282920726573756C74203D3E2025780D0A0000C849004019004051004030000000014038
:40180000001000140140800000150140000700400140000A004C01400002005001402000801401408405004880004300232D302B2000686C4C0065666745464700303132B0
:401840003334353637383941424344454600303132333435363738396162636465660000F8B500BFF8BC08BC9E4670474D00000079070000F8B500BFF8BC08BC9E4670472C
:401880002900000098180000C880FF1F8800000050000000000000000000000069000000F00F0000C0080000A081FF1F0000E02EC05D00001800000000366E0100000000BA
:4018C000000000000000000000000000000000000000000000000000000000002A1800000000000000000000000000000000000000000000000000000000000000000000A6
:4019000000000000000000000000000000000000000000000000000000000000EC80FF1F00000000000000000000000000000000000000000000000000000000000000001D
:401940000000000000000000000000000000000000000000000000000000000000000000000000000000000000000000000000000000000000000000000000000000000067
:401980000000000000000000000000000000000000000000000000000000000000000000000000000000000000000000000000000000000000000000000000000000000027
:4019C00000000000000000000000000000000000000000000000000000000000000000000000000000000000000000000000000000000000000000000000000000000000E7
:401A000000000000000000000000000000000000000000000000000000000000000000000000000000000000000000000000000000000000000000000000000000000000A6
:020000040003F7
:0200000480007A
:400000000952004002640040026500403A02014026030140020501405A06014037070140010D01400C14014039150140641601403A1701403C18014019190140071B014092
:40004000024001400941014003420140024301400344014005450140014601400147014004480140094901400D4C0140094D014006500140025101400184088009A01020E0
:40008000180219021C0160206130830F870F857286380A011E011F012B0133013601580459045C205F0182028B0691029204960297089F01A508AA01AF01B104B201B30151
:4000C000B402B502B604B708BF04C010C105C5D0C652C701C81EC9FFCAFFCBFFCDA0CF04D018D280D407D804D904DA04DB04DC22DD22DF01E040E2C0E440E540E6C0E8C00A
:40010000EAC0ECC0EEC0000104200A400B200F021008180119541F8021022254272029442C083088310235403B20400149024B805088535059025AA87240838087208D106F
:40014000C048C28CC402CA2ACC1BCE04D008D208D60F9420A701060C07080A080B050C010E0615031603170C1B181C0C1E03211A23042401260E2D032F143303351C360F95
:4001800039083A803B203F044002470449FF4A074BFF4C404D204EF04F055008580459045A045C115D015F01604061A862406320820384098501861088208C108E0C901C8B
:4001C00091019202970198149B01A301A40CA611A810B01FB420B701BE10BF40C052C103C50EC6B0C70CC819C9FFCAFFCBFFCEF0CF44D00CD401D804D904DA04DB04DC010B
:40020000DD11DF01E6C0EA40EB0200200102022003030604071109200B800E020F20120413081704188019021A041E021FC0224024042510272C2B802C082D202F82300890
:40024000320233223620371438043E083F204324472048104A0250085120560C573059205A859420A701C0EFC2AAC426CA91CC67CE62D026D208D60FE0400D011E012201B3
:40028000310136013A023E403F01580459045C015F01052506020A030C100E420F201080172A19401A401D0D1E1921022504275A2F083410371938803E043F2045094742DE
:4002C0004C804E0955205E086E046F097528760277208080810283108E48908096509C809D699E029F08A201A525B008B204B301C0F0C2F1C478CA20CCE0CE68D0D0D23083
:40030000D640EA010363054009670B180D1C0F62111C12021361140115601A021B041D241E011F8021102201251829082C012D7F3001311F32023380376038023B023E0418
:400340004060410549FF4AFF4BFF4DA04F04501854185604580459045A045B045C115D105F01604062C06440654066C068C06AC06CC06EC0800A8204850186058C038E0C77
:400380009101980399029A04A301A608A803AA04B00FB503B920BA02C020C105C651C720C82CC9FFCAFFCBFFCDAFCE0FCF04D018D804D904DA04DC11DF01E040E2C0E440CF
:4003C000E540E6C0E8C0EAC0ECC0EEC003A209100D200E9210081220154017011B021E801F0422202440260127122B802D682E42332234803501371938043C403D0A3E10D4
:4004000040084A024E065010514052025F026440654067088140844090849420A008A110A3A0A620A703B010B201C00DC2F2C496CAF1CCF5CEF2D004D238D680D8B0E001F6
:4004400002010E022A02340236014060410249FF4AFF4BFF4DA04F045018528058045A045B045F01604062C06440654066C068C06AC06CC06EC086069201A202A604B00421
:40048000B202B401C020C106C515C702C813C9FFCAFFCBFFCDAFCE0FCF04D018D280D804DA04DB04DF01E040E2C0E440E540E6C0E8C0EAC0ECC0EEC000040540074009027C
:4004C00010A0172018041A201B121D401F204004460448A84F2050085204710277408320C094C208C44CD024D224AB20AF02B140B610E808EA81EC043140CC1053016304F0
:40050000830187049D40D480D840E240E6203E109D40CE2096109D4010101420C40C5D028D029830D601E00298309830854096109D40E61003405F8083C0AA10C010D62059
:40054000E280E480EA8010401320148058086308678078107C209830C40ED602D803DE0378407C8098C0AB24AF40B408DC01DE04E802000708050A0210031A031C01000391
:4005800003C000006E00110079E7060002220051040000007F8000002001000E404400310F007000000071006000000006E7000000000000161866600807078000000A0066
:4005C000000010013406050001C0E0000AFFFFFF62A0F0410C00000000000212040404041111000100000000000040020010301000101012000000000000000000000000B9
:400600000000000000FCFC00840000000000300030000000002020000000000000EBEB00E0000000003A3A002000000002000102020002000000000000000000000000004B
:40064000000000000000000000000000000000000000000000000000000000000000000000000000000000000000000000000000000000000000000000000000000000007A
:40068000000000000000000000000000000000000000000000000000000000000000000000000000000000000000000000000000000000000000000000000000000000003A
:4006C00000000000000000000000000000000000000000000000000000000000000000000000000000000000000000000000000000000000000000000000000000000000FA
:4007000000000000000000000000000000000000000000000000000000000000000000000000000000000000000000000000000000000000000000000000000000000000B9
:0200000490006A
:0400000000004005B7
:0200000490105A
:04000000BC90ACAF55
:0200000490303A
:02000000BF93AC
:0200000490402A
:4000000000000000000000000000000000000000000000000000000000000000000000000000000000000000000000000000000000000000000000000000000000000000C0
:400040000000000000000000000000000000000000000000000000000000000000000000000000000000000000000000000000000000000000000000000000000000000080
:400080000000000000000000000000000000000000000000000000000000000000000000000000000000000000000000000000000000000000000000000000000000000040
:4000C0000000000000000000000000000000000000000000000000000000000000000000000000000000000000000000000000000000000000000000000000000000000000
:0200000490501A
:0C00000000012E16106900012E20CFFC1C
:00000001FF