:400000000080002011000000450600004506000008B5044B1A6803F53F5302331A6000F031FB00BFFA46004010B5054C237833B9044B13B10448AFF300800123237010BDB5
:400040005081FF1F0000000070160000084B10B51BB108490848AFF300800848036803B910BD074B002BFBD0BDE81040184700BF000000005481FF1F70160000C880FF1FE6
:400080000000000008B50E4B1A6841F261139A4207D80B4B1A6825321A60186880B200F03BFE074B5A6840F61D239A4207D8044B5A6824325A60586880B200F027FE08BD90
:4000C000CC80FF1F08B50E4B1A6840F67E639A4207D90B4B1A68253A1A60186880B200F01BFE074B5A6840F24E739A4207D9044B5A68243A5A60586880B200F007FE08BD27
:40010000CC80FF1F70B500F0B9FC3E4B18701B78323B352B74D8DFE803F03B1F7373737373737373737373737373737373736973737373737373737373737370737373739B
:400140005C73657373737373737373737373731B01222D4B1A7070BDFFF794FF2B4E72682B4C2C49204600F05FFE204600F0A8FC294D284600F0A4FC32682849204600F030
:4001800053FE204600F09CFC284600F099FC70BDFFF798FF1D4E72681D4C1E49204600F043FE204600F08CFC1B4D284600F088FC32681A49204600F037FE204600F080FC25
:4001C000284600F07DFC70BDFFF75CFF0134E4B200E00024082CF7D970BDFFF773FF0134E4B200E00024082CF7D970BD00F0FEFCC043C0B200F0EEFC70BD0122024B1A74DE
:4002000070BD00BF9081FF1F6C81FF1FCC80FF1F7081FF1F74160000581800008016000008B562B600F01CFC394800F075FC00F0DBFB00F049FD00F035FBFF2000F080FB2A
:40024000FF2000F083FB00F091FD324C606880B200F05CFD206880B200F05EFD2E4800F02FFC2E4800F02CFC2D4800F029FC2D4800F026FC2C4800F023FC2C4800F020FC7A
:400280002B4800F01DFC2B4800F01AFC2A4800F017FC2A4800F014FC294800F011FC294800F00EFC284800F00BFC284800F008FC274800F005FC274800F002FC264800F0A3
:4002C000FFFB264B1B7813F0FF0FFAD000F0F8FA002000F001FB00F011FB214B1880322303FB00F01F4A82FB00320244C017C0EBE212D2B21C4B1A70184C251D1B49284633
:4003000000F092FD284600F0DBFB00232370D8E705010000CC80FF1F8C16000094160000A4160000BC1600003017000048170000601700007817000090170000A81700003B
:40034000C0170000DC170000F81700001018000028180000441800005C1800006C81FF1F8E81FF1F818080808C81FF1F64180000FEE700BFF0B40022174611E050F8276005
:40038000F3B226F0FF0608E001EB420511F812406D78A5550132013BDBB2002BF4D101371C2FEBD9F0BC704708B50A46002100F032FD08BDF8B5164B1B78DBB2154E347843
:4003C000E4B2154F3D78EDB203F00701134A11701B090132137044F00303337045F003033B7080220E4B1A7040230E4A13700232137008220C4B1A70202203331A700A2088
:4004000000F0B2FB3D7034704422084B1A70F8BDCF010049F8460040F94600406E5800402D51004001590040205B00407658004008B500F0E5FC08BD38B50922344B1A8015
:40044000182334490B7002310A80334A13704FF49C71023211800232137040F2AF41023211800232137004222C492D48FFF7E0FF02222C4B1A7008224FF040231A7003219E
:4004800003F500731970284B1B78DBB227490B70274B1A8041F25122023B1A80002419250CE0244B1B7803F0010343EA440404F003044FF4F07000F067FC013D0DB1032C69
:4004C000EFD115B90320FFF753FF1B4B4FF480721A8007221A70002218490A704820023108701A700222033B1A7004220A331A70134A137843F00F031370013A137843F0FF
:4005000001031370013A137843F08003137038BD804000408240004086400040DC060048004100400043004008010049A1460040224200402542004004400040064000403C
:40054000A243004038B572B62D4A137843F00403137000240CE02B4D630019194A0011462A44084691882858FFF71EFF0134E4B2082CF0D924494FF09040FFF7FBFE234ABC
:40058000137843F0020313701032137843F0020313701F4C237843F040032370A2F58632513A137843F010031370082219491A48FFF73EFF082219491948FFF739FF0822CA
:4005C00018491948FFF734FF0A2218491848FFF72FFF184A137843F008031370164D61232B70FFF729FF81232B700122134B1A70FFF7E0FE0E2221461148FFF719FF38BDA0
:40060000E8460040681800007400004803500140A0430040B806004802510040C006004812510040C806004822510040D006004830510040224300400048004004000840EE
:40064000B043004008B500F0AFFB03680C2B00D1FEE7FEE708B5094B1A681044084BC31A802B02DC054B186005E000F09DFB0C2303604FF0FF32104608BD00BFD480FF1F90
:40068000A881FF1F08B5104E104D16E029686B68AC68002204E051F8040B43F8040B0432A242F8D1E868002203E0002143F8041B04328242F9D11035013E002EE6D100F095
:4006C00079FBFFF7ADFDFEE701000000F818000008B5104A104B1A60104A136843F40073136000230AE0032B03D80D4A52F8231000E00C490C4A42F8231001332F2BF2D9D7
:400700000A4B1A780A4B1A70074A0A4B1A60FFF719FF08BD0004FA050CED00E014ED00E000000000450600000080FF1FBC760040C080FF1F08ED00E008B50A280FD00C28B3
:4007400002D0082806D102E04FF4805209E04FF4807206E0002000F005FA002201E04FF480620021094B198042F2107303FB02F303F6C413064A82FB0302DB17C3EBE2236F
:40078000044A1360044B198008BD00BF9A81FF1FAD8BDB689481FF1F9881FF1F38B500F0FBFA04461E4A137843F0010313701032137843F0010313701A3A137843F0010388
:4007C00013701032137843F00103137002F5AA521232137843F0030313701822114B1A70013B1A7842F040021A701A7802F0FC021A70CE22053B1A700225A3F597530C3BCF
:400800001D70094A137843F0080313700A2000F0ABF9064B1D60204600F0C2FA38BD00BFAB43004006590040275B004080E200E010B504460A280DD00C2802D0082804D140
:4008400001E0C22207E0422205E0002000F08AF9C22200E08222034B1A702046FFF76CFF10BD00BF0259004008B5102000F062F90721012000F096F90749012000F07EF9EA
:40088000064A137843F0060313700820FFF7D0FF0022034B1A8008BD15090000015900409C81FF1F08B5054B1B7823B9FFF7DCFF0122024B1A70FFF771FF08BD7E81FF1F60
:4008C000044B1A7802F0FB021A701A7842F001021A7070470059004010B5074B1B7813F0010401D10028F8D024B1012000F03CF9014B1B78204610BD01590040034B1888D4
:4009000080B2034B1B88C01A00B27047A05B00409881FF1F704700BF024A137843F080031370704775640040014B1870704700BF05640040014B1870704700BF4564004063
:40094000014B1870704700BF25640040014B1870704700BF35640040014B1870704700BF85640040014B1878704700BF65640040014B1878704700BF5564004008B501E08A
:40098000FFF7F6FFFFF7EEFF10F0100FF8D108BD10B5134A137803F0C00343F009031370104C237843F001032370FF20FFF7BCFFFF20FFF7BFFF0020FFF7C2FF0020FFF746
:4009C000C5FF0020FFF7C8FF00F0E6F9237843F01003237000F0E4F9FFF7D0FF10BD00BF756400409564004008B5054B1B7823B9FFF7CEFF0122024B1A70FFF78DFF08BD23
:400A00007F81FF1F7222074B1A70202201331A7006229D331A70472210331A70002253331A7070478664004010B500F0B5F904460A4A137843F0200313700132137843F007
:400A40001003137002F58072137843F01003137000F07AF8204600F0A3F910BD9664004008B5054B1B7823B9FFF7CCFF0122024B1A70FFF7D9FF08BD8081FF1F084B1B7879
:400A8000DBB213F0200F06D0064A1078C0B213F01E0F02D17047002070470020704700BF6764004046650040034B1B7813F0040FFAD1024B187070476765004047650040F4
:400AC00038B5074B1B782BB938BDFFF7EDFF0134A4B201E005460024285D0028F5D138BD8081FF1F014B1B681864704708ED00E04001C0B2014B1870704700BF00E400E06F
:400B00000122014B1A60704700E100E00122014B1A60704780E100E010B50446FFF7F6FF2046FFF7DFFF0720FFF7E2FFFFF7E8FF10BD00BF034B1A7800F0F8001043187035
:400B4000704700BF02410040054A137843F0040313701032137843F004031370704700BFA243004001BE704708B5034B1B7A00FB03F000F009F908BDD880FF1F70B5044620
:400B80000E46074B1D681F2802D90020FFF7EAFF04F01F04103455F8240045F8246070BD08ED00E038B504460D46072902D90020FFF7D8FF1F2C02D90020FFF7D3FF04F0D6
:400BC0001F0000F1604000F564406D01EDB2057038BD00BF044A137803F0FD03400000F0020018431070704720510040024B1878C0F34000704700BF21510040024A137866
:400C000043F08003137070477D640040014B1880704700BF18680040014B1880704700BF98680040014B1880704700BF58680040014B1870704700BF8D640040014B18783E
:400C4000704700BF6D640040014B188880B27047B868004008B501E0FFF7F6FFFFF7EEFF10F0100FF8D108BD10B5154A137803F0C00343F0090313701F32137843F0010365
:400C80001370104C237843F0010323704BF68030FFF7BCFF4BF68030FFF7BEFF4FF46160FFF7C0FF0020FFF7C3FF00F075F8237843F01003237000F073F8FFF7CBFF10BD60
:400CC0007D6400409D64004008B5054B1B7823B9FFF7CAFF0122024B1A70FFF78FFF08BD8281FF1F024A137843F080031370704774640040014B1880704700BF0C68004006
:400D0000014B1880704700BF8C680040014B1880704700BF4C680040014B1880704700BF6C68004008B5104A137803F0C00343F0090313702232137843F001031370013283
:400D4000137843F0010313704BF68030FFF7D2FF4BF68030FFF7D4FF0020FFF7D7FF0020FFF7DAFF08BD00BF7464004008B5054B1B7823B9FFF7D6FF0122024B1A70FFF70E
:400D8000B1FF08BD8381FF1F0230800803D000BF01380046FCD17047EFF3108072B6704780F31088704700BF014B1868704700BF4881FF1F0E4B70B51E460E4C0025E41AF3
:400DC000A410A54204D056F8253098470135F8E700F080FD084B094C1E46E41AA4100025A54204D056F8253098470135F8E770BDE0180000E0180000E0180000E818000036
:400E000010B5431E0A44914204D011F8014B03F8014FF8E710BD03460244934202D003F8011BFAE7704700000EB400B54FF402719CB0ADF814106FF00041049107914FF612
:400E4000FF711DAB02900690084853F8042BADF81610006802A9019300F064F8029B00221A701CB05DF804EB03B070474881FF1F2DE9F0478E6882469E420C4691469846EE
:400E80003ED88A8912F4906F3AD02568096902236F1A656905EB450595FBF3F57B1C43449D4238BF1D4653050FD5294600F040FB064698B13A462169FFF7A2FFA38923F427
:400EC000906343F08003A38113E02A4600F08EFB064670B92169504600F0DEFA0C23CAF80030A3894FF0FF3043F04003A381BDE8F08726613E44266046466561ED1BA5608D
:400F0000464528BF464649463246206800F0A8FAA36800209B1BA36023681E442660BDE8F08700002DE9F04F9DB003938B8980461C060D4616460DD50B695BB9402100F081
:400F4000F7FA2860286118B90C23C8F80030CDE040236B610023099320238DF82930DFF89CB130238DF82A3037463C4614F8013B1BB9B7EB060910D003E0252BF9D0274658
:400F8000F3E74B46324629464046FFF771FF013000F0A780099B4B4409933B78002B00F0A08000234FF0FF3204930793059206938DF853301A930126052221784E4800F0D8
:400FC00041FA671C049B38B14B4A3C46801A06FA00F018430490EFE7D90644BF20228DF853201A0744BF2B228DF8532022782A2A03D0079A00210A200BE0039A111D1268E3
:401000000391002A10DA524243F00200079204900BE027463B780134303B092B03D800FB02320121F5E701B107923B782E2B1ED17B782A2B0AD1039B02371A1D1B6803929C
:40104000002BB8BF4FF0FF33059310E0002319460593781C0A2407463A780130303A092A03D804FB01210123F5E703B1059103223978224800F0E6F940B14023CBEB0000CD
:4010800003FA00F0049B013718430490397806221B487E1C8DF8281000F0D4F988B1194B33B9039B073323F007030833039314E003AB00932A46144B04A94046AFF3008085
:4010C00007E003AB00932A460F4B04A9404600F093F8B0F1FF3F824603D0099B5344099342E7AB895B0601D4099801E04FF0FF301DB0BDE8F08F00BFA0180000A618000056
:40110000AA18000000000000710E00002DE9F04791461F460A698B6806469342B8BF1346C9F8003091F843200C46DDF8208012B10133C9F800302368990642BFD9F80030D6
:401140000233C9F80030256815F0060510D104F1190A07E00123524639463046C04701301AD00135E368D9F800209B1A9D42F1DB94F843302268003318BF012392060FD5F4
:40118000E118302081F843005A1C94F845102244023382F8431003E04FF0FF30BDE8F08704F1430239463046C0470130F4D02268D9F80050E36802F00602042A08BF5D1B76
:4011C0002269A3680CBF25EAE57500259342C4BF9B1AED184FF000091A344D4509D00123224639463046C0470130D5D009F10109F3E70020BDE8F0872DE9F04317460A7E47
:4012000085B06E2A984606460C460C9B01F1430E00F0AE8011D8632A22D009D8002A00F0BB80582A40F0CA8081F84520834955E0642A1ED0692A1CD0C0E0732A00F0B0808C
:4012400009D86F2A2ED0702A40F0B8800A6842F020020A603EE0752A24D0782A3AD0ADE01A6801F14205111D1960136884F84230A8E021681A6811F0800F02D0111D196073
:4012800008E011F0400F02F10401196002D0B2F9003000E01368002B3CDA2D225B4284F8432037E021681A6811F0800F02D0111D196007E011F0400F02F10401196001D0CD
:4012C000138800E01368227E5C496F2A14BF0A2208221BE078225A4984F845202268186812F0800F00F104051D6003D1550601D5038800E00368D00744BF42F0200222603B
:401300001BB9226822F0200222601022002084F8430001E049490A226568002DA56008DB206820F0040020602BB9002D7DD175460CE0002B79D07546B3FBF2F002FB1033E6
:40134000CB5C05F8013D03460028F5D1082A0BD12368DA0708D5236962689A42DEBF302305F8013C05F1FF35C5EB0E0323612EE008681A6810F0800F496903D0101D1860F9
:40138000136808E010F0400F02F104001860136801D0198000E0196000232361754616E01A68111D1960156800216268284600F049F808B1401B6060636804E004F1420587
:4013C00084F8422001232361002384F84330CDF800803B4603AA21463046FFF797FE013002D14FF0FF3026E023692A4639463046C0470130F5D023689B0710D5002504F1E8
:40140000190907E001234A4639463046C0470130E7D00135E368039A9B1A9D42F2DBE068039B9842B8BF184605E00B7804F1420584F842308AE705B0BDE8F083B11800005E
:40144000C218000010B5C9B202449042034605D01C7801308C42F8D1184610BD002010BD884210B501EB020301D8421E0BE09842FBD28118D21AD34204D013F8014D01F89D
:40148000014DF8E710BD994204D011F8014B02F8014FF8E710BD000038B50546002944D051F8043C0C1F002BB8BFE41800F0D4F81E4A1368114613B96360146030E0A34283
:4014C0000DD92268A018834201BF18685B681218226063600C6023E0A24203D813465A68002AF9D118681918A1420BD12168014458188242196013D1106852680144196091
:401500005A600DE002D90C232B6009E021686018824201BF106852680918216062605C602846BDE8384000F098B838BD8881FF1F70B5CD1C25F0030508350C2D38BF0C25FF
:40154000002D064601DBA94202D90C23336046E000F082F8234B1C681A462146A1B10B685B1B0ED40B2B03D90B60CC18CD501EE08C420BBF63684B681360636018BF0C4637
:4015800015E00C464968E9E7174C23681BB9304600F052F820602946304600F04DF8431C18D0C41C24F00304A0420DD12560304600F053F804F10B00231D20F00700C31AEB
:4015C0000ED05A42E25070BD211A304600F034F80130EBD10C233360304600F03EF8002070BD00BF8881FF1F8481FF1FF8B5074615460E4621B91146BDE8F840FFF798BFA0
:401600001AB9FFF749FF2846F8BD00F027F885420ED929463846FFF78BFF044650B131462A46FFF7EDFB31463846FFF735FF01E03046F8BD2046F8BD38B5064C0023054649
:4016400008462360FFF706F8431C02D1236803B12B6038BDA081FF1F7047704751F8040C0028BEBF091851F8043CC01804387047000000002A5425642A4465723A200000EE
:401680002A5425642A497A3A200000002A2E6B776C0D0A00636C6561725F70616E656C28290D0A007365745F677269645F73697A652831352C39290D0A0000006164645F1B
:4016C0007465787428332C312C6D656469756D2C4C2C22416D6172696C6C6F204C75636573202D2D5C6E417A756C20546F6D6120426F6C61202D2D5C6E526F6A6F205375B8
:40170000626520426F6C61202D2D205C6E5665726465204C616E7A6120426F6C61222C3234352C3234302C3234352C290D0A00006164645F627574746F6E28372C362C3215
:401740002C302C34290D0A006164645F627574746F6E28372C382C332C312C35290D0A006164645F627574746F6E28392C382C352C322C290D0A00006164645F62757474CE
:401780006F6E28352C382C342C332C290D0A00006164645F627574746F6E28392C362C31312C582C290D0A006164645F627574746F6E28352C362C31302C5A2C290D0A0099
:4017C0006164645F627574746F6E2831332C372C32382C462C290D0A000000006164645F627574746F6E2831332C312C33302C532C290D0A000000006164645F6275747494
:401800006F6E28302C312C32372C532C290D0A006164645F627574746F6E28302C372C32392C442C290D0A006164645F6D6F6E69746F7228352C322C352C542C31290D0A7B
:40184000000000007365745F70616E656C5F6E6F746573282C2C2C290D0A000072756E28290D0A0025640A00C84900401900405100403000C05100401000F051004010008C
:4018800000000140001000140140000800400140000A004C014000020050014020004300232D302B2000686C4C006566674546470030313233343536373839414243444521
:4018C0004600303132333435363738396162636465660000F8B500BFF8BC08BC9E4670474D000000D1060000F8B500BFF8BC08BC9E4670472900000008190000C880FF1F6E
:40190000880000005800000000000000F00F0000B6080000A881FF1F0000E02EC05D00001800000000366E01000000000000000000000000000000000000000000000000DB
:4019400000000000000000009E18000000000000000000000000000000000000000000000000000000000000000000000000000000000000000000000000000000000000B1
:401980000000000000000000E880FF1F00000000000000000000000000000000000000000000000000000000000000000000000000000000000000000000000000000000A1
:4019C00000000000000000000000000000000000000000000000000000000000000000000000000000000000000000000000000000000000000000000000000000000000E7
:401A000000000000000000000000000000000000000000000000000000000000000000000000000000000000000000000000000000000000000000000000000000000000A6
:401A40000000000000000000000000000000000000000000000000000000000000000000000000000000000000000000000000000000000000000000000000000000000066
:401A80000000000000000000000000000000000000000000000000000000000000000000000000000000000000000000000000000000000000000000000000000000000026
:020000040003F7
:0200000480007A
:40000000085200400464004001650040470401402D0501405F0601404207014002090140020B0140400C0140200D01405F1401404D1501405716014041170140011B014019
:40004000034001400641014008420140054301400845014009460140084701400648014009490140114C0140014D014005500140025101400001010108C0094010141118D8
:4000800018021C01850F867287388D0D870F02021A022E0132023401528058045B045C015D105F0182028308860488108B018C2092029439950498099A309C309E09A20834
:4000C000A430A707AA04AC30AE09B001B104B204B308B402B502B638B701B802BA80BE14C030C102C5D0C610C752C83AC9FFCAFFCBFFCDA0CF04D018D280D407D804D904EB
:40010000DA04DB04DC32DD33DF01E040E2C0E440E540E6C0E8C0EAC0ECC0EEC00102064A07100A040D1A0E0210021480162417401A041B181C041D061E02245025042680CA
:4001400027182F2037083C12450446044F01560557205C405D085E205F01650C7002740186808708C0F8C2F2C4F1CA40CC40CEA0D060D6F0E402001E011004180508080101
:4001800009180C100D1C0F0210011304141E15071718180119041C1A1D1C1E041F0122042320240827032806291F2A182F203001311F3402361C37203B023E103F4040606C
:4001C000410249FF4AFF4BFF4DA04F04501856025712580459045A045B045C225D215F01604062C06440654066C068C06AC06CC06EC08B01A701B501C030C106C510C6503D
:40020000C702C81AC9FFCAFFCBFFCDAFCE0FCF04D018D418D604D904DA04DB04DC10DD21DF01E040E2C0E440E540E6C0E8C0EAC0ECC0EEC006A207440A030C440D080E4664
:400240001488153017081D021E0921202680274028202B102C042E012F1234483520360238203EAA40A041024604480849024F20501852045B015E08604462806D206E44C2
:400280006F14762A7708848087108920901495209A019C809D029E6A9F40A201A310A508A610C0F0C2F0C470CAF2CCF0CEF4D022D224D641D80DEE01E480EE01B301E40279
:4002C0001E011F012801300133014060410249FF4AFF4BFF4DA04F045018580459045A045F01604062C06440654066C068C06AC06CC06EC08602870192019E02A701B002DA
:40030000B301B401BF04C020C106C5D0C601C702C816C9FFCAFFCBFFCDAFCE0FCF04D018D280D405D804D904DA04DB04DF01E040E2C0E440E540E6C0E8C0EAC0ECC0EEC09A
:40034000000409820D80172018041B111E40220427202B1036803A0440044604480849014F2050085180528459015A487102C004C289C440CA02CC10CE02D024D224D60B8D
:4003800000130204040A05700614070C0B200D1417031813195C1A0C1B021D6C1F112109220823102420260528032A042D103030331F340F3760380239803A203F40400549
:4003C000460449FF4A074BFF4C404D204EF04F055008580459045A045C225D025F01604061A86240632080108260832084708506882089068A108C018D048E0E8F0290404B
:4004000092109330956096039710980C99089A039D029E089F05A20CA360A470A710A801AA06AB50B101B270B308B40FB506B770BA20BB80BF04D804D904DC22DF010008DC
:4004400002800404052007520A080B080C800E080F921048121014401628180819021A081C081D101E081F08200221082320268A270A29022B012C402D022F243118328056
:4004800034803604372238A83A083B103C043D203E203F824801509051105210532083488480852087108E088F4890809520960897209B109D209E10A008A110A404A6829C
:4004C000A748AC10AE01C0FCC2F2C47ECAE9CCFECEFED208E640EA010180054009C00A010D220F08100411F01303153317C019F31DC01F332511270829332B042E072F33D0
:400500003002310C3204340135F037033B283F014064410342054401460E47C0482449FF4AFF4BFF4C624DA04EF04F41500C580459045A045C235D025F0166406702691027
:400540006A306B106D106E106F12860188029801A001A601AA01B202B601BE44C032C105C50EC60BC70CC815C9FFCAFFCBFFCEF0CF44D00CD401D804DA04DB04DD22DF017F
:40058000E6C0EA40EB020028041008200A080E80100812901320160119441D201EA02408250827892E802F183410360137483E2A3F80402041104410450A468047804810C6
:4005C0004B804C044D104E0150485640570259445A015B207E807F4085209010920295109A2B9B509D209E409F01A112A201A508A612A702A840C046C212C48ECA70CCF0A6
:40060000CEF0D0D6D238D60FEA0133803740CC30534056029F40A780D420D6203E10860297809E029F40A780CE20E61096109780A780AB40EE8001100410548058106708F7
:40064000C003D403D8011A808740901091109C10A480B304C608E8018A409010911093409C10A480AA40E401874096109780AB80E210EE200220562086208E20AA10C01085
:40068000D440E440EA801080132014106640674079107C109010911093409A409C10A480C40ED601D801DE03AB20000F0A0E0E01100C1A0C000F03C0000303000300000010
:4006C00000CBCB00C000000000323E001C00800002000102020002000000000013001801000000000000000000000000000000000000000000000000000000000000000063
:4007000000000000000000000000000000000000000000000000000000000000000000000000000000000000000000000000000000000000000000000000000000000000B9
:400740000000000000000000000000000000000000000000000000000000000000000000000000000000000000000000000000000000000000000000000000000000000079
:400780000000000000000000000000000000000000000000000000000000000000000000000000000000000000000000000000000000000000000000000000000000000039
:4007C00000000000000000000000000000000000000000000000000000000000000000000000000000000000000000000000000000000000000000000000000000000000F9
:0200000490006A
:0400000000004005B7
:0200000490105A
:04000000BC90ACAF55
:0200000490303A
:02000000335576
:0200000490402A
:4000000000000000000000000000000000000000000000000000000000000000000000000000000000000000000000000000000000000000000000000000000000000000C0
:400040000000000000000000000000000000000000000000000000000000000000000000000000000000000000000000000000000000000000000000000000000000000080
:400080000000000000000000000000000000000000000000000000000000000000000000000000000000000000000000000000000000000000000000000000000000000040
:4000C0000000000000000000000000000000000000000000000000000000000000000000000000000000000000000000000000000000000000000000000000000000000000
:0200000490501A
:0C00000000012E16106900012E2143BEE5
:00000001FF