:400000000080002011000000E1060000E106000008B5044B1A6803F53F5302331A6000F067FB00BFFA46004010B5054C237833B9044B13B10448AFF300800123237010BD47
:400040005081FF1F00000000580C0000084B10B51BB108490848AFF300800848036803B910BD074B002BFBD0BDE81040184700BF000000005481FF1F580C0000C880FF1F2A
:400080000000000008B500F0CBFB3E4B18701B78303B372B74D8DFE803F02024282C3040737373737373737373737373737370735073737373737373737373737357737330
:4000C000735B7373737373737373737373737373731C01222C4B1A7008BD01222A4B5A7008BD0122284B9A7008BD0122264BDA7008BD0122244B1A7108BD002000F06CFCE7
:40010000002000F06FFC002000F0D4FC002000F0C5FC00221C4B5A7108BD002000F05CFC002000F05FFC002000F0C4FC002000F0B5FC0022144B5A7108BD00F0DFFBC04338
:40014000C0B200F0CFFB08BD01220F4B9A7108BD0D4BDB7913F0FF0F07D041F27C5000F0C9FC0022084BDA7108BD4FF4FA6000F0C1FC0122044BDA7108BD0122024B1A72AC
:4001800008BD00BF8E81FF1F6C81FF1F10B50122134B5A7111E0134C236825332360206880B200F0CDFB636825336360606880B200F0C0FB502000F07FFB0A4B1A6841F2DB
:4001C00052139A42E7D9012000F074FC012000F065FC462000F006FCD22000F0FDFB10BD6C81FF1FCC80FF1F10B50122134B5A7111E0134C2368253B2360206880B200F01E
:400200009FFB6368253B6360606880B200F092FB502000F051FB0A4B1B68B3F5676FE8D2012000F047FC012000F038FCDC2000F0D9FB502000F0D0FB10BD00BF6C81FF1FE8
:40024000CC80FF1F10B50122134B5A71134B5B68B3F50C6F0ED0114B4FF47F641C604FF40C60586000F066FB204600F069FB642000F022FB012000F01DFC012000F00EFC9B
:40028000064C6920207200F0A7FB207A00F0AAFB0122014B5A7210BD6C81FF1FCC80FF1F08B562B600F0AEFA6C4800F0E9FA00F0E7FB002000F0FEFB002000F0EFFB0020AA
:4002C00000F08AFB002000F08DFB00F063FB644C606880B200F02EFB206880B200F030FB00F038FC41F27C5000F004FC002000F007FC002000F048FC5A4B5B7A13F0FF0F06
:4003000015D0574B187AFF280ED0564B5B7913F0FF0F09D00A30C0B2514C207200F05CFB207A00F05FFB02E000224E4B5A724D4B5B7813F0FF0F04D0FFF784FF0022494B52
:400340005A70484B1B7913F0FF0F04D0FFF74CFF0022444B1A71434BDB7813F0FF0F04D0FFF714FF00223F4BDA703E4B9B7813F0FF0F24D03A4B5B68B3F50C6F0ED0384BF8
:400380004FF47F641C604FF40C60586000F0D2FA204600F0D5FA642000F08EFA022000F089FB022000F07AFB642000F015FB642000F018FB2B4B01225A7100229A70294B2B
:4003C0009B7913F0FF0F10D0012000F0DDFB45F6CC3000F095FB40F6980000F06DFA002000F08EFB00221F4B9A711E4B1B7A13F0FF0F0FD0012000F0D3FB012000F0B8FB72
:400400004FF4487000F058FA002000F0B1FB0022144B1A72134B5B7913F0FF0F0FD1002000F0DAFA002000F0DDFA002000F042FB002000F033FB6922094B1A725CE7094A3C
:40044000937A0133DBB293721E2B03D1134600225A719A72642000F02FFA4DE785000000CC80FF1F6C81FF1FFEE700BFF0B40022174611E050F82760F3B226F0FF0608E040
:4004800001EB420511F812406D78A5550132013BDBB2002BF4D101371D2FEBD9F0BC7047064B1B78DBB203F00701054A11701B09013213704422034B1A707047CF01004914
:4004C0006E5800407658004008B50A46002100F0BAFB08BD38B50922284B1A801823284A13701925023215800232137040F2DF1102321180023213700222224B1A7008225A
:400500004FF040231A70032103F5007319701E4B1B78DBB21D490B701D4B1A8041F25122023B1A8000240CE01A4B1B7803F0010343EA440404F003044FF4F07000F03CFB55
:40054000013D0DB1032CEFD115B90320FFF78CFF114B4FF480721A8007221A7000220F490A704820023108701A700222033B1A700B4A137843F00703137038BD804000402E
:40058000824000400043004008010049A146004022420040254200400440004006400040A243004008B500F043FB08BD38B572B6384A137843F00403137000240CE0364DA1
:4005C000630019194A0011462A44084691882858FFF77AFF0134E4B2082CF0D900240BE02D49A3001819420088188022C16B806BFFF7D8FF0134E4B2002CF1D027494FF011
:400600009040FFF733FF264A137843F0020313701032137843F002031370224C237843F040032370A2F58632513A137843F01003137008221C491D48FFF7B4FF08221C4918
:400640001C48FFF7AFFF08221B491C48FFF7AAFF08221B491B48FFF7A5FF0A221A491B48FFF7A0FF1A4A137843F008031370194D61232B70FFF72EFF81232B700122164BB4
:400680001A70FFF70DFF0E2221461448FFF78AFF38BD00BFE84600405C0C00007800004803500140A0430040080600480251004010060048C2510040180600481251004098
:4006C00020060048225100402806004830510040224300400048004004000840B043004008B500F079FA03680C2B00D1FEE7FEE708B5104E104D16E029686B68AC68002291
:4007000004E051F8040B43F8040B0432A242F8D1E868002203E0002143F8041B04328242F9D11035013E002EE6D100F05BFAFFF7B7FDFEE701000000C40C000008B5104A97
:40074000104B1A60104A136843F40073136000230AE0032B03D80D4A52F8231000E00C490C4A42F8231001332F2BF2D90A4B1A780A4B1A70074A0A4B1A60FFF717FF08BDC0
:400780000004FA050CED00E014ED00E000000000E10600000080FF1FBC760040C080FF1F08ED00E07222084B1A70202201331A700622A3F5B0731A70472210331A7000221C
:4007C00051331A70704700BF8565004010B500F0FBF904460A4A137843F0200313700132137843F010031370FF3A137843F01003137000F053F8204600F0EAF910BD00BF8C
:400800009565004008B5054B1B7823B9FFF7CAFF0122024B1A70FFF7D9FF08BD8481FF1F084B1B78DBB213F0200F06D0064A1078C0B213F01E0F02D170470020704700201D
:40084000704700BF6665004045650040014B1B681864704708ED00E04001C0B2014B1870704700BF00E400E00122014B1A60704700E100E00122014B1A60704780E100E033
:4008800010B50446FFF7F6FF2046FFF7DFFF0720FFF7E2FFFFF7E8FF10BD00BF054A137843F0020313701032137843F002031370704700BFA243004010B5044605E0084B9E
:4008C000186800F079F9A4F50044B4F5004FF6D8034B586800FB04F000F06EF910BD00BFD880FF1F044A137803F0FD03400000F0020018431070704720510040024B1878FF
:40090000C0F34000704700BF21510040024A137843F080031370704779650040014B1880704700BF106A0040014B1880704700BF906A0040014B1880704700BF506A0040BB
:40094000014B1880704700BF706A004008B5104A137803F0C00343F0090313701F32137843F0010313700132137843F0010313704BF68030FFF7D2FF4BF68030FFF7D4FF69
:400980000020FFF7D7FF0020FFF7DAFF08BD00BF7965004008B5054B1B7823B9FFF7D6FF0122024B1A70FFF7B1FF08BD8681FF1F024A137843F0800313707047736400400B
:4009C000014B1870704700BF03640040014B1870704700BF43640040014B1870704700BF23640040014B1870704700BF33640040014B1870704700BF83640040014B187856
:400A0000704700BF63640040014B1878704700BF5364004008B501E0FFF7F6FFFFF7EEFF10F0100FF8D108BD10B5134A137803F0C00343F009031370104C237843F0010384
:400A40002370FF20FFF7BCFFFF20FFF7BFFF0020FFF7C2FF0020FFF7C5FF0020FFF7C8FF00F0B2F8237843F01003237000F0B0F8FFF7D0FF10BD00BF73640040936400406D
:400A800008B5054B1B7823B9FFF7CEFF0122024B1A70FFF78DFF08BD8781FF1F044A137803F09F03400100F0600018431070704700510040044A137803F0E703C00000F008
:400AC000180018431070704720510040024A137843F080031370704778650040014B1880704700BF0C6A0040014B1880704700BF8C6A0040014B1880704700BF4C6A0040C7
:400B0000014B1880704700BF6C6A004008B5104A137803F0C00343F0090313701E32137843F0010313700132137843F0010313704BF68030FFF7D2FF4BF68030FFF7D4FFAC
:400B40000020FFF7D7FF0020FFF7DAFF08BD00BF7865004008B5054B1B7823B9FFF7D6FF0122024B1A70FFF7B1FF08BD8881FF1F044A137803F0FE0300F00100184310708D
:400B8000704700BF20510040044A137803F0E703C00000F0180018431070704700510040044A137803F0E703C00000F01800184310707047C05100400230800803D000BFC0
:400BC00001380046FCD17047EFF3108072B6704780F31088704700BF014B1868704700BF4881FF1F0E4B70B51E460E4C0025E41AA410A54204D056F8253098470135F8E792
:400C000000F04EF8084B094C1E46E41AA4100025A54204D056F8253098470135F8E770BDAC0C0000AC0C0000AC0C0000B40C000010B5431E0A44914204D011F8014B03F8C9
:400C4000014FF8E710BD03460244934202D003F8011BFAE77047000000000000C84900401900405100403000F0510040100000000140001000140140800000150140000714
:400C800000400140000A004C014000020050014020000000801401408805004880004300F8B500BFF8BC08BC9E4670474D0000003D070000F8B500BFF8BC08BC9E4670476D
:400CC00029000000D80C0000C880FF1F88000000480000000000000000000000F00F0000C0080000690000000000E02EC05D00001800000000366E01000000000000000099
:400D00000000000000000000000000000000000000000000000000009E0C000000000000000000000000000000000000000000000000000000000000000000000000000009
:400D4000000000000000000000000000000000000000000000000000E880FF1F000000000000000000000000000000000000000000000000000000000000000000000000ED
:400D80000000000000000000000000000000000000000000000000000000000000000000000000000000000000000000000000000000000000000000000000000000000033
:400DC00000000000000000000000000000000000000000000000000000000000000000000000000000000000000000000000000000000000000000000000000000000000F3
:400E000000000000000000000000000000000000000000000000000000000000000000000000000000000000000000000000000000000000000000000000000000000000B2
:400E40000000000000000000000000000000000000000000000000000000000000000000000000000000000000000000000000000000000000000000000000000000000072
:020000040003F7
:0200000480007A
:400000000952004002640040026500403A02014025030140030501405A06014039070140010B01400C14014038150140641601403B1701403C1801401A190140061B014092
:40004000024001400941014003420140034301400244014003450140034601400147014001480140094901400F4C01400B4D014006500140025101400184088009C01020BF
:40008000180219021C0160406160830F870F857286380A011E011F012B0133013601580459045C205F0182028B0691029204960297089F01A508AA01AF01B104B201B30101
:4000C000B402B502B604B708BF04C010C105C5D0C652C701C81EC9FFCAFFCBFFCDA0CF04D018D280D407D804D904DA04DB04DC22DD22DF01E040E2C0E440E540E6C0E8C00A
:40010000EAC0ECC0EEC0000104200A400B200F021008180119641F8021022254272029442C083088310235403B20400149024B805088535059025AA8724083808720C048F4
:40014000C28CC402CA2ACC1BCE04D008D208D60F9420A701B520060C07080A080B050C010E0615031603170C1B181C0C1E03211A23042401260E2D032F143303351C360FC8
:4001800039083A803B203F044002470449FF4A074BFF4C404D204EF04F055008580459045A045C115D015F01604061A862406320820384098501861088208C108E0C901C8B
:4001C00091019202970198149B01A301A40CA611A810B01FB420B701BE10BF40C052C103C50EC6B0C70CC819C9FFCAFFCBFFCEF0CF44D00CD401D804D904DA04DB04DC010B
:40020000DD11DF01E6C0EA40EB0200200102022003030604071109200B800E020F20120413081704188019021A041E021FC0224024042510272C2B802C082D202F82300890
:40024000320233223620371438043E083F204324472048104A0250085120560C573059205A8594209C80A701AC80C0EFC2AAC426CA91CC67CE62D026D208D60FE8100D01D5
:400280001E012201310136013A023E403F01580459045C015F01052506020A030C100E420F201080172619401A401D0D1E092102250427562F083410371538803E043F208F
:4002C000450947424C804E0955205E086E046F09752876027720810283108E48908096409D6D9E029F04A201A525A710B008B204B301C0F0C2F1C478CA20CCE0CE68D0D023
:40030000D230D640EA0103630401054009240B800D1C0F62111C1202136115601A021B041D671E011F1821102201251829082C012D7F3001311F32023380376038023B0268
:400340003E044060410549FF4AFF4BFF4DA04F04501854185604580459045A045B045C115D105F01604062C06440654066C068C06AC06CC06EC0800A8204850186058C03CF
:400380008E0C9101980399029A04A301A608A803AA04B00FB503B920BA02C020C105C651C720C82CC9FFCAFFCBFFCDAFCE0FCF04D018D804D904DA04DC11DF01E040E2C059
:4003C000E440E540E6C0E8C0EAC0ECC0EEC003A2050409100D200E8210081220154017011B021E801F0422202440260127122B802D682E4233223501375538043C403D0A7D
:400400003F2040084A024E065010514052025F0264806540670881448340908494209C80A008A110A3A0A620A703B010B201C02DC2D2C496CAF1CCF5CEF2D004D238D680A1
:40044000D8B0E00102010E022A02340236014050410249FF4AFF4BFF4DA04F045018528058045A045B045F01604062C06440654066C068C06AC06CC06EC082069201A2022A
:40048000A604B004B202B601C010C106C515C702C813C9FFCAFFCBFFCDAFCE0FCF04D018D280D804DA04DB04DF01E040E2C0E440E540E6C0E8C0EAC0ECC0EEC00001054081
:4004C0000740090210A0172018011A101B421D401E084001460448A84F80500852047102774083208E10C098C208C44CD028D214AA04AB02B140E804EA81EC043010CC107E
:4005000053016304830187049C10D480D840E240E6203E109C10CE209610AC10EE401410C4045F029810D6019810B702E8089810961003405F8083C0AA10C010D620E28087
:40054000E480EA8010401320148059086204660178107D018E049810C40ED602D803DE03E408110178407C80950198C0A908AA01AB20C408DC01DE04000708050A0210033D
:400580001A031C01000303C06E00110079E7060002220051040000007F8000002001000E404400310F007000000071006000000006E7000000000000161866600807078033
:4005C00000000A00000010013406050001C0E0000AFFFFFF62A0F0410C000000000002120404040411110001000000000000400200103010001010120000000000000000AF
:40060000000000000000000000FCFC0084000000001878006000000000EBEB00E0000000003B3B0020000000020001020200020000000000000000000000000000000000F9
:40064000000000000000000000000000000000000000000000000000000000000000000000000000000000000000000000000000000000000000000000000000000000007A
:40068000000000000000000000000000000000000000000000000000000000000000000000000000000000000000000000000000000000000000000000000000000000003A
:4006C00000000000000000000000000000000000000000000000000000000000000000000000000000000000000000000000000000000000000000000000000000000000FA
:4007000000000000000000000000000000000000000000000000000000000000000000000000000000000000000000000000000000000000000000000000000000000000B9
:0200000490006A
:0400000000004005B7
:0200000490105A
:04000000BC90ACAF55
:0200000490303A
:020000009F89D6
:0200000490402A
:4000000000000000000000000000000000000000000000000000000000000000000000000000000000000000000000000000000000000000000000000000000000000000C0
:400040000000000000000000000000000000000000000000000000000000000000000000000000000000000000000000000000000000000000000000000000000000000080
:400080000000000000000000000000000000000000000000000000000000000000000000000000000000000000000000000000000000000000000000000000000000000040
:4000C0000000000000000000000000000000000000000000000000000000000000000000000000000000000000000000000000000000000000000000000000000000000000
:0200000490501A
:0C00000000012E16106900012E1CAFF24A
:00000001FF