:400000000080002011000000DD050000DD05000008B5044B1A6803F53F5302331A6000F0FDFA00BFFA46004010B5054C237833B9044B13B10448AFF300800123237010BDBC
:400040004881FF1F0000000000160000084B10B51BB108490848AFF300800848036803B910BD074B002BFBD0BDE81040184700BF000000004C81FF1F00160000C880FF1FD6
:400080000000000008B5074B1B68B3F59C5F07D2044B1A68B4321A60186880B200F006FE08BD00BFCC80FF1F08B5074B1B68B3F55E6F07D9044B1A68B43A1A60186880B29B
:4000C00000F0F4FD08BD00BFCC80FF1F10B500F0A3FC2F4B18701B78323B352B56D8DFE803F02C1F5555555555555555555555555555555555554B55555555555555555506
:4001000055555552555555553E55475555555555555555555555551B01221E4B1A7010BDFFF7B0FF1C4B1A681C4C1D49204600F043FE204600F092FC10BDFFF7B5FF164B97
:400140001A68164C1649204600F036FE204600F085FC10BDFFF796FF0134E4B200E00024082CF7D910BDFFF79FFF0134E4B200E00024082CF7D910BD00F006FDC043C0B247
:4001800000F0F6FC10BD0122024B1A7410BD00BF8881FF1F6481FF1FCC80FF1F6881FF1F0416000008B562B600F028FC374800F081FC00F0E5FB00F057FD00F03FFBFF201F
:4001C00000F08AFBFF2000F08DFB00F097FD41F2B00000F06BFD2E4800F040FC2D4800F03DFC2D4800F03AFC2C4800F037FC2C4800F034FC2B4800F031FC2B4800F02EFC11
:400200002A4800F02BFC2A4800F028FC294800F025FC294800F022FC284800F01FFC284800F01CFC274800F019FC274800F016FC264800F013FC264800F010FC254B1B78FC
:4002400013F0FF0FFAD000F007FB002000F010FB00F020FB204B1880322303FB00F01F4A82FB00320244C017C0EBE212D2B21C4B1A70184C251D1B49284600F09DFD28468C
:4002800000F0ECFB00232370D8E700BFCD0000000C16000014160000241600003C160000B0160000C8160000E0160000F81600001017000028170000401700005C170000B6
:4002C0007817000090170000A8170000C4170000DC1700006481FF1F8681FF1F818080808481FF1FE4170000FEE700BFF0B40022174611E050F82760F3B226F0FF0608E0C5
:4003000001EB420511F812406D78A5550132013BDBB2002BF4D101371E2FEBD9F0BC704708B50A46002100F03EFD08BDF8B5164B1B78DBB2154E3478E4B2154F3D78EDB20F
:4003400003F00701134A11701B090132137044F00303337045F003033B7080220E4B1A7040230E4A13700232137008220C4B1A70202203331A700A2000F0C4FB3D70347056
:400380004422084B1A70F8BDCF010049F8460040F94600406E5800402D51004001590040205B00407658004008B500F0F1FC08BD38B50922344B1A80182334490B70023112
:4003C0000A80334A13704FF49C71023211800232137040F2AF41023211800232137004222C492D48FFF7E0FF02222C4B1A7008224FF040231A70032103F500731970284B1E
:400400001B78DBB227490B70274B1A8041F25122023B1A80002419250CE0244B1B7803F0010343EA440404F003044FF4F07000F073FC013D0DB1032CEFD115B90320FFF79D
:4004400053FF1B4B4FF480721A8007221A70002218490A704820023108701A700222033B1A7004220A331A70134A137843F00F031370013A137843F001031370013A1378D9
:4004800043F08003137038BD804000408240004086400040F4060048004100400043004008010049A146004022420040254200400440004006400040A243004038B572B6B8
:4004C000354A137843F00403137000240CE0334D630019194A0011462A44084691882858FFF71EFF0134E4B2092CF0D900240BE02A49A3001819420088188022016CC06BCC
:40050000FFF752FF0134E4B2002CF1D024494FF09040FFF7EBFE234A137843F0020313701032137843F0020313701F4C237843F040032370A2F58632513A137843F010036C
:400540001370082219491A48FFF72EFF082219491948FFF729FF082218491948FFF724FF0A2218491848FFF71FFF184A137843F008031370164D61232B70FFF719FF8123F4
:400580002B700122134B1A70FFF7D0FE0E2221461148FFF709FF38BDE8460040E81700007C00004803500140A0430040D006004802510040D806004812510040E00600485E
:4005C00022510040E806004830510040224300400048004004000840B043004008B500F0ABFB03680C2B00D1FEE7FEE708B5094B1A681044084BC31A802B02DC054B1860AD
:4006000005E000F099FB0C2303604FF0FF32104608BD00BFD080FF1FA081FF1F08B5104E104D16E029686B68AC68002204E051F8040B43F8040B0432A242F8D1E8680022E5
:4006400003E0002143F8041B04328242F9D11035013E002EE6D100F075FBFFF7A3FDFEE7010000008818000008B5104A104B1A60104A136843F40073136000230AE0032B5A
:4006800003D80D4A52F8231000E00C490C4A42F8231001332F2BF2D90A4B1A780A4B1A70074A0A4B1A60FFF709FF08BD0004FA050CED00E014ED00E000000000DD050000F2
:4006C0000080FF1FBC760040C080FF1F08ED00E008B50A280FD00C2802D0082806D102E04FF4805209E04FF4807206E0002000F007FA002201E04FF480620021094B19809A
:4007000042F2107303FB02F303F6C413064A82FB0302DB17C3EBE223044A1360044B198008BD00BF9281FF1FAD8BDB688C81FF1F9081FF1F38B500F0F7FA04461E4A13788A
:4007400043F0010313701032137843F0010313701A3A137843F0010313701032137843F00103137002F5AA521232137843F0030313701822114B1A70013B1A7842F0400238
:400780001A701A7802F0FC021A70CE22053B1A700225A3F597530C3B1D70094A137843F0080313700A2000F0ADF9064B1D60204600F0BEFA38BD00BFAB43004006590040B0
:4007C000275B004080E200E010B504460A280DD00C2802D0082804D101E0C22207E0422205E0002000F08CF9C22200E08222034B1A702046FFF76CFF10BD00BF0259004014
:4008000008B5102000F064F90721012000F098F90749012000F080F9064A137843F0060313700820FFF7D0FF0022034B1A8008BDAD080000015900409481FF1F08B5054BF5
:400840001B7823B9FFF7DCFF0122024B1A70FFF771FF08BD7681FF1F044B1A7802F0FB021A701A7842F001021A7070470059004010B5074B1B7813F0010401D10028F8D08F
:4008800024B1012000F03EF9014B1B78204610BD01590040034B188880B2034B1B88C01A00B27047A05B00409081FF1F704700BF024A137843F0800313707047746400405C
:4008C000014B1870704700BF04640040014B1870704700BF44640040014B1870704700BF24640040014B1870704700BF34640040014B1870704700BF84640040014B187852
:40090000704700BF64640040014B1878704700BF5464004008B501E0FFF7F6FFFFF7EEFF10F0100FF8D108BD10B5134A137803F0C00343F009031370104C237843F0010383
:400940002370FF20FFF7BCFFFF20FFF7BFFF0020FFF7C2FF0020FFF7C5FF0020FFF7C8FF00F0E2F9237843F01003237000F0E0F9FFF7D0FF10BD00BF74640040946400400A
:4009800008B5054B1B7823B9FFF7CEFF0122024B1A70FFF78DFF08BD7781FF1F7222084B1A702022A3F580731A7006229F331A70472210331A7000224F331A70704700BF7B
:4009C0008665004010B500F0AFF904460A4A137843F020031370A2F58072137843F010031370FE32137843F01003137000F07AF8204600F09DF910BD9665004008B5054BA9
:400A00001B7823B9FFF7CAFF0122024B1A70FFF7D9FF08BD7881FF1F084B1B78DBB213F0200F06D0064A1078C0B213F01E0F02D17047002070470020704700BF66640040EE
:400A400046650040034B1B7813F0040FFAD1024B18707047646500404465004038B5074B1B782BB938BDFFF7EDFF0134A4B201E005460024285D0028F5D138BD7881FF1F64
:400A8000014B1B681864704708ED00E04001C0B2014B1870704700BF00E400E00122014B1A60704700E100E00122014B1A60704780E100E010B50446FFF7F6FF2046FFF706
:400AC000DFFF0720FFF7E2FFFFF7E8FF10BD00BF034B1A7800F0F80010431870704700BF02410040054A137843F0040313701032137843F004031370704700BFA243004059
:400B000001BE704708B5034B1B7A00FB03F000F003F908BDD480FF1F70B504460E46074B1D681F2802D90020FFF7EAFF04F01F04103455F8240045F8246070BD08ED00E044
:400B400038B504460D46072902D90020FFF7D8FF1F2C02D90020FFF7D3FF04F01F0000F1604000F564406D01EDB2057038BD00BF044A137803F0FD03400000F00200184319
:400B80001070704720510040024B1878C0F34000704700BF21510040024A137843F08003137070477C640040014B1880704700BF0C680040014B1880704700BF8C680040D2
:400BC000014B1880704700BF4C680040014B1870704700BF8C640040014B1878704700BF6C640040014B188880B27047AC68004008B501E0FFF7F6FFFFF7EEFF10F0100F17
:400C0000F8D108BD08B5164A137803F0C00343F0090313701A32137843F0010313700132137843F0010313704BF68030FFF7BCFF4BF68030FFF7BEFF4FF46160FFF7C0FFFE
:400C40000020FFF7C3FF00F06FF8064A137843F01003137000F06CF8FFF7CAFF08BD00BF7C6400409C64004008B5054B1B7823B9FFF7C8FF0122024B1A70FFF78DFF08BD30
:400C80007A81FF1F024A137843F08003137070477D640040014B1880704700BF18680040014B1880704700BF98680040014B1880704700BF5868004008B50F4A137803F091
:400CC000C00343F0090313701F32137843F0010313700132137843F0010313704BF68030FFF7D8FF4BF68030FFF7DAFF4FF45E60FFF7DCFF08BD00BF7D64004008B5054B5F
:400D00001B7823B9FFF7D8FF0122024B1A70FFF7B9FF08BD7B81FF1F0230800803D000BF01380046FCD17047EFF3108072B6704780F31088704700BF014B1868704700BF8D
:400D40004481FF1F0E4B70B51E460E4C0025E41AA410A54204D056F8253098470135F8E700F080FD084B094C1E46E41AA4100025A54204D056F8253098470135F8E770BD5C
:400D80007018000070180000701800007818000010B5431E0A44914204D011F8014B03F8014FF8E710BD03460244934202D003F8011BFAE7704700000EB400B54FF4027192
:400DC0009CB0ADF814106FF00041049107914FF6FF711DAB02900690084853F8042BADF81610006802A9019300F064F8029B00221A701CB05DF804EB03B070474481FF1F3E
:400E00002DE9F0478E6882469E420C46914698463ED88A8912F4906F3AD02568096902236F1A656905EB450595FBF3F57B1C43449D4238BF1D4653050FD5294600F040FB2E
:400E4000064698B13A462169FFF7A2FFA38923F4906343F08003A38113E02A4600F08EFB064670B92169504600F0DEFA0C23CAF80030A3894FF0FF3043F04003A381BDE8F9
:400E8000F08726613E44266046466561ED1BA560464528BF464649463246206800F0A8FAA36800209B1BA36023681E442660BDE8F08700002DE9F04F9DB003938B89804629
:400EC0001C060D4616460DD50B695BB9402100F0F7FA2860286118B90C23C8F80030CDE040236B610023099320238DF82930DFF89CB130238DF82A3037463C4614F8013B1B
:400F00001BB9B7EB060910D003E0252BF9D02746F3E74B46324629464046FFF771FF013000F0A780099B4B4409933B78002B00F0A08000234FF0FF320493079305920693AC
:400F40008DF853301A930126052221784E4800F041FA671C049B38B14B4A3C46801A06FA00F018430490EFE7D90644BF20228DF853201A0744BF2B228DF8532022782A2A30
:400F800003D0079A00210A200BE0039A111D12680391002A10DA524243F00200079204900BE027463B780134303B092B03D800FB02320121F5E701B107923B782E2B1ED177
:400FC0007B782A2B0AD1039B02371A1D1B680392002BB8BF4FF0FF33059310E0002319460593781C0A2407463A780130303A092A03D804FB01210123F5E703B105910322F9
:401000003978224800F0E6F940B14023CBEB000003FA00F0049B013718430490397806221B487E1C8DF8281000F0D4F988B1194B33B9039B073323F007030833039314E076
:4010400003AB00932A46144B04A94046AFF3008007E003AB00932A460F4B04A9404600F093F8B0F1FF3F824603D0099B5344099342E7AB895B0601D4099801E04FF0FF3097
:401080001DB0BDE8F08F00BF30180000361800003A18000000000000010E00002DE9F04791461F460A698B6806469342B8BF1346C9F8003091F843200C46DDF8208012B142
:4010C0000133C9F800302368990642BFD9F800300233C9F80030256815F0060510D104F1190A07E00123524639463046C04701301AD00135E368D9F800209B1A9D42F1DB57
:4011000094F843302268003318BF012392060FD5E118302081F843005A1C94F845102244023382F8431003E04FF0FF30BDE8F08704F1430239463046C0470130F4D0226896
:40114000D9F80050E36802F00602042A08BF5D1B2269A3680CBF25EAE57500259342C4BF9B1AED184FF000091A344D4509D00123224639463046C0470130D5D009F1010938
:40118000F3E70020BDE8F0872DE9F04317460A7E85B06E2A984606460C460C9B01F1430E00F0AE8011D8632A22D009D8002A00F0BB80582A40F0CA8081F84520834955E021
:4011C000642A1ED0692A1CD0C0E0732A00F0B08009D86F2A2ED0702A40F0B8800A6842F020020A603EE0752A24D0782A3AD0ADE01A6801F14205111D1960136884F8423038
:40120000A8E021681A6811F0800F02D0111D196008E011F0400F02F10401196002D0B2F9003000E01368002B3CDA2D225B4284F8432037E021681A6811F0800F02D0111DA3
:40124000196007E011F0400F02F10401196001D0138800E01368227E5C496F2A14BF0A2208221BE078225A4984F845202268186812F0800F00F104051D6003D1550601D54F
:40128000038800E00368D00744BF42F0200222601BB9226822F0200222601022002084F8430001E049490A226568002DA56008DB206820F0040020602BB9002D7DD17546CC
:4012C0000CE0002B79D07546B3FBF2F002FB1033CB5C05F8013D03460028F5D1082A0BD12368DA0708D5236962689A42DEBF302305F8013C05F1FF35C5EB0E0323612EE03A
:4013000008681A6810F0800F496903D0101D1860136808E010F0400F02F104001860136801D0198000E0196000232361754616E01A68111D1960156800216268284600F05C
:4013400049F808B1401B6060636804E004F1420584F8422001232361002384F84330CDF800803B4603AA21463046FFF797FE013002D14FF0FF3026E023692A463946304691
:40138000C0470130F5D023689B0710D5002504F1190907E001234A4639463046C0470130E7D00135E368039A9B1A9D42F2DBE068039B9842B8BF184605E00B7804F14205AB
:4013C00084F842308AE705B0BDE8F083411800005218000010B5C9B202449042034605D01C7801308C42F8D1184610BD002010BD884210B501EB020301D8421E0BE0984296
:40140000FBD28118D21AD34204D013F8014D01F8014DF8E710BD994204D011F8014B02F8014FF8E710BD000038B50546002944D051F8043C0C1F002BB8BFE41800F0D4F8A8
:401440001E4A1368114613B96360146030E0A3420DD92268A018834201BF18685B681218226063600C6023E0A24203D813465A68002AF9D118681918A1420BD12168014460
:4014800058188242196013D110685268014419605A600DE002D90C232B6009E021686018824201BF106852680918216062605C602846BDE8384000F098B838BD8081FF1FD0
:4014C00070B5CD1C25F0030508350C2D38BF0C25002D064601DBA94202D90C23336046E000F082F8234B1C681A462146A1B10B685B1B0ED40B2B03D90B60CC18CD501EE064
:401500008C420BBF63684B681360636018BF0C4615E00C464968E9E7174C23681BB9304600F052F820602946304600F04DF8431C18D0C41C24F00304A0420DD12560304665
:4015400000F053F804F10B00231D20F00700C31A0ED05A42E25070BD211A304600F034F80130EBD10C233360304600F03EF8002070BD00BF8081FF1F7C81FF1FF8B50746CB
:4015800015460E4621B91146BDE8F840FFF798BF1AB9FFF749FF2846F8BD00F027F885420ED929463846FFF78BFF044650B131462A46FFF7EDFB31463846FFF735FF01E0B3
:4015C0003046F8BD2046F8BD38B5064C0023054608462360FFF70AF8431C02D1236803B12B6038BD9881FF1F7047704751F8040C0028BEBF091851F8043CC0180438704726
:40160000000000002A5425642A0D0A002A2E6B776C0D0A00636C6561725F70616E656C28290D0A007365745F677269645F73697A652831352C39290D0A0000006164645FA1
:401640007465787428332C312C6D656469756D2C4C2C22416D6172696C6C6F204C75636573202D2D5C6E417A756C20546F6D6120426F6C61202D2D5C6E526F6A6F20537538
:40168000626520426F6C61202D2D205C6E5665726465204C616E7A6120426F6C61222C3234352C3234302C3234352C290D0A00006164645F627574746F6E28372C362C3296
:4016C0002C302C34290D0A006164645F627574746F6E28372C382C332C312C35290D0A006164645F627574746F6E28392C382C352C322C290D0A00006164645F627574744F
:401700006F6E28352C382C342C332C290D0A00006164645F627574746F6E28392C362C31312C582C290D0A006164645F627574746F6E28352C362C31302C5A2C290D0A0019
:401740006164645F627574746F6E2831332C372C32382C462C290D0A000000006164645F627574746F6E2831332C312C33302C532C290D0A000000006164645F6275747414
:401780006F6E28302C312C32372C532C290D0A006164645F627574746F6E28302C372C32392C442C290D0A006164645F6D6F6E69746F7228352C322C352C542C31290D0AFC
:4017C000000000007365745F70616E656C5F6E6F746573282C2C2C290D0A000072756E28290D0A0025640A00C84900401900405100403000C05100401000F051004010000D
:4018000000000140001000140140000280160140800500400140000A004C01400002005001402000001601405006004880004300232D302B2000686C4C0065666745464732
:40184000003031323334353637383941424344454600303132333435363738396162636465660000F8B500BFF8BC08BC9E4670474D00000069060000F8B500BFF8BC08BC45
:401880009E4670472900000098180000C880FF1F800000005800000000000000B0100000A081FF1F0000E02EC05D00001800000000366E010000000000000000000000008F
:4018C00000000000000000000000000000000000000000002E18000000000000000000000000000000000000000000000000000000000000000000000000000000000000A2
:401900000000000000000000000000000000000000000000E480FF1F0000000000000000000000000000000000000000000000000000000000000000000000000000000025
:401940000000000000000000000000000000000000000000000000000000000000000000000000000000000000000000000000000000000000000000000000000000000067
:401980000000000000000000000000000000000000000000000000000000000000000000000000000000000000000000000000000000000000000000000000000000000027
:4019C00000000000000000000000000000000000000000000000000000000000000000000000000000000000000000000000000000000000000000000000000000000000E7
:401A000000000000000000000000000000000000000000000000000000000000000000000000000000000000000000000000000000000000000000000000000000000000A6
:020000040003F7
:0200000480007A
:400000000652004003640040026500400103014048040140340501405D0601404407014007090140060B0140450C0140270D01405E1401404415014015160140441701405F
:4000400002190140011B0140034001400541014006420140074301400A450140094601400547014001480140094901400B4C0140014D014005500140025101400002010288
:400080001054114819021C01840F86388C0D840F86728940020207060A010B010F0313081A041E0126022D0430043101320233043401350237083E144010410345D2461053
:4000C0004705481B49FF4AFF4BFF4DA04F04501852805407580459045A045B045C335D335F01604062C06440654066C068C06AC06CC06EC0810787018D068F019106920172
:40010000930195019706980199069C01A902AD04AE01B107B401B820BA80BB02D804D904DC22DF010021020809400B080C010E090F4013041740180419041B011E05200144
:40014000214022222320244027402B012DA0310234013604371039803B283C403D083E014001422049014B04531459055A805B20662067047102A140A602AE02C00AC2D37C
:40018000C484CA38CCE1CEDED00AD60F000801070608070108100C380D070E04102011061301150116011706180E19061A301C3E1F08203822022430270829022A062D04F5
:4001C0002E01300131073508363E3A803E013F104010410649FF4AFF4BFF4DA04F04501854185604580459045A045B045C225D205F01604062C06440654066C068C06AC03A
:400200006CC06EC084028C049603B002B204B401BE04C010C106C502C601C7D0C825C9FFCAFFCBFFCDAFCE0FCF04D018D804DA04DC03DF01E040E2C0E440E540E6C0E8C0EC
:40024000EAC0ECC0EEC000840448052006800B200C080E49149016081781180419081A801F41262227802DA02E4434103684371138403BC03D083E093F40400244024540D9
:4002800048104A084E08508051015F0164086601670278087A208201888092059320968097409B409DA09F10A140A208A410A504A604B220B404C0F5C2F4C4F0CA70CCF0AC
:4002C000CED0D018D224D680D8B0EA20EE018A209C029E20B708E480EC40EE019C029E209F08AF20B640E8020B01260229012E013001320237014060410249FF4AFF4BFFCD
:400300004DA04F04501852805405580459045A045B045D015F01604062C06440654066C068C06AC06CC06EC0860292019301A602AB01B002B301B401C020C106C501C70285
:40034000C811C9FFCAFFCBFFCDAFCE0FCF04D018D280D804D904DA04DB04DC01DD11DF01E040E2C0E440E540E6C0E8C0EAC0ECC0EEC00004090210201620174018041A4023
:400380001B101C801D011F04232026402A202F0431013E204004460448284F20500852045C025E805F08710277408840C004C208C4A4CA24CC01CE20D024D224D6D0E6209A
:4003C000005C02020340046C06110C090D030E100F1412031513172C19131B641D4A1E201F342335241428702A0C2C102F48301F3110330F3460356838203B283E103F01ED
:400400004064410245E046BC480E49FF4AFF4BFF4EF04F44500C5401580459045A045B045C225D225F0166C06A406B02800182028402850786018D018F069004950798035F
:40044000A403A904AB01AD02AF09B004B107B203B508BE01C006C740C9FFCA07CBFFCC40CD20CEF0CF05D008D804D904DA04DC22DD02DF01E040E1A8E240E320000A028037
:40048000030205040680088009400A400E441020120917041A481D041F092008211822182380244828802B022E802F083298370438803A013C403D043E0440804110484036
:4004C00049014A084E0450605540560159095BA08040832086808F0191049448952099089B049D049E81A001A302A444A548C03DC259C427CA39CC4ECE59D005D224D60FE4
:40050000E240EA018308840189018B0E92019401950197069C029D0C9F03A303AF0CB003B70FB802BB80D804D904DC22DF010008044005240680084009480A800D240E0173
:400540001480161217101B021DA01E081F11200222402504261028402B022E422F50310832403480374439203A013D063E0145A546104E8254085E2067036D046E406F042B
:4005800075A077108984920193809408970199089B409C809DA09E809F10A202A448A504A684B101C0F4C2EDC4F0CAD9CC5ACEC5D0F0D210D620B002E820EA013310374097
:4005C000CC3051105E809F50D420D6203E109F50A640AD10CE20EA40831096109F10AB40B240E220EE80011004105480581064016601C003D403D601D8011A809010911068
:400600009C10A480AC01B601C608EC02901091109C10A480AA40961002105A2086108E10AA10C010D480E040EA8010801320141079107C10901091109C10A480C40EDE0341
:40064000AB20000F0A0D0E0310041A04000F03C011028000220180000400000033004000000000000801000033000C003F0200000F023000000233000C0000000C0133007C
:40068000300000010F02C00000002000000040102304050001E0000C12FFFFFF62A0F0410C0000000000021104040404222200010000000000004002001030100010101235
:4006C000000000000000000000000000000000000003030003000000000B0B000000000000727E005C008000020001020200020000000000130018010000000000000000DA
:4007000000000000000000000000000000000000000000000000000000000000000000000000000000000000000000000000000000000000000000000000000000000000B9
:400740000000000000000000000000000000000000000000000000000000000000000000000000000000000000000000000000000000000000000000000000000000000079
:400780000000000000000000000000000000000000000000000000000000000000000000000000000000000000000000000000000000000000000000000000000000000039
:4007C00000000000000000000000000000000000000000000000000000000000000000000000000000000000000000000000000000000000000000000000000000000000F9
:0200000490006A
:0400000000004005B7
:0200000490105A
:04000000BC90ACAF55
:0200000490303A
:02000000CF929D
:0200000490402A
:4000000000000000000000000000000000000000000000000000000000000000000000000000000000000000000000000000000000000000000000000000000000000000C0
:400040000000000000000000000000000000000000000000000000000000000000000000000000000000000000000000000000000000000000000000000000000000000080
:400080000000000000000000000000000000000000000000000000000000000000000000000000000000000000000000000000000000000000000000000000000000000040
:4000C0000000000000000000000000000000000000000000000000000000000000000000000000000000000000000000000000000000000000000000000000000000000000
:0200000490501A
:0C00000000012E16106900012E20DFFB0D
:00000001FF