:400000000080002011000000610800006108000008B5044B1A6803F53F5302331A6000F03FFC00BFFA46004010B5054C237833B9044B13B10448AFF300800123237010BD6A
:400040005081FF1F00000000201E0000084B10B51BB108490848AFF300800848036803B910BD074B002BFBD0BDE81040184700BF000000005481FF1F201E0000C880FF1F76
:4000800000000000084B1B889BB20A2B05D10123064A1370044A13807047034A13889BB201339BB213807047CC80FF1F6C81FF1F08B500F08DFC314B18701B78303B272B64
:4000C0005AD8DFE803F014181C20242C59595959595959595959594759594359345959595959595959595959593B5959593F0122234B5A7008BD0122214B9A7008BD01226E
:400100001F4BDA7008BD01221D4B1A7108BD00221C4B9A701A4B012159719A7108BD0022184B9A70164B012159719A7108BD00F009FDC043C0B200F0F9FC08BD0122104B78
:40014000DA7108BD01220E4B1A7208BD01220C4B5A7208BD0A4B9B7A13F0FF0F06D1FF22084B9A700122064B9A7208BD6922054B9A700022024B9A7208BD00BFA881FF1F57
:400180006C81FF1FCC80FF1F08B5074BDB7813F0FF0F06D14FF4FA6001F0DAF80122024BDA7001F0BBF808BDCC80FF1F08B5012100F0ECFE38B100F029FF00F025FD00F0D7
:4001C0000FFD002008BD012008BD00BF08B5002100F0DCFE38B100F019FF00F015FD00F0FFFC002008BD012008BD00BF38B50446FFF7ECFFC0B15E2000F024FF00F006FF4A
:400200002046FFF7D3FF002000F048FF0546002000F044FF044600F0F9FE14EB051000D53F30C0F3871038BD632038BD08B5012001F038F8012001F065F8022001F026F8BC
:40024000022001F053F8642000F0EAFF962000F0EDFF642000F06EFF962000F071FF08BD08B5022001F01EF8022001F04BF8012001F00CF8012001F039F8962000F0D0FF6B
:40028000642000F0D3FF962000F054FF642000F057FF08BD08B5012001F004F8012001F031F8012000F0F2FF012001F01FF8044B9B7A13F0FF0F02D10122014B9A7108BDB8
:4002C0006C81FF1F08B5022000F0ECFF022001F019F8022000F0DAFF022001F007F8C82000F09EFFC82000F0A1FFC82000F022FFC82000F025FF08BD2DE9F04762B60020EC
:4003000000F014FC00F056FBA94800F0AFFB00F0AFFF002000F084FF002000F087FF002000F0F0FF002000F0E1FF00F057FF002000F000FF002000F003FF002000F0B2FF13
:40034000002000F0A3FF01F033F8002001F000F8002000F0B3FF41F27C5000F0F9FF002000F0B8FF00F03CFC924801F0D7F801F0ADF84FF4FA7000F097FB8F4801F040F8AF
:4003800000228E4BDA708E4B9B7913F0FF0F20D08B4B1B7813F0FF0F1BD0884B9878FF2814D0874B5B7913F0FF0F0FD100F038FF824CA07800F03AFFA07800F0BBFEA07811
:4003C00000F0BEFEA3780533A37002E000227C4B9A717B4B5B7913F0FF0F22D0002000F01FFF002000F022FF002000F0A3FE002000F0A6FE002000F055FF002000F082FFBF
:40040000002000F043FF002000F070FF6C4B9B7A13F0FF0F02D16922684B9A700022684B5A71674B5B7813F0FF0F04D0FFF732FF0022634B5A70624B1B7913F0FF0F04D002
:40044000FFF70EFF00225E4B1A715D4BDB7813F0FF0F04D0FFF7EAFE0022594BDA70584B9B7813F0FF0F04D0FFF72CFF0022544B9A70534BDB7913F0FF0F10D0012000F0DA
:400480001DFF45F6C05000F069FF40F6980000F00BFB002000F062FF0022494BDA71484B5B7A13F0FF0F0FD0012000F013FF012000F020FE4FF4487000F0F6FA002000F0B2
:4004C00019FE00223E4B5A723D4B1B7A13F0FF0F1AD03A4BDB7813F0FF0F0BD041F27C5000F036FF4FF4FA7000F0DEFA0022334BDA7006E04FF4FA6000F02AFF01222F4BD6
:40050000DA7000222E4B1A722D4B1B7813F0FF0F3FF439AF6820FFF769FE80466820FFF765FE07466820FFF761FE06466820FFF75DFE05466820FFF759FE0446204AD37A17
:400540000133DBB2D372042B2ED113460022DA72DFF870A003F10C0942465146484601F03BF8484600F056FA3A465146484601F033F8484600F04EFA32465146484601F0DC
:400580002BF8484600F046FA2A465146484601F023F8484600F03EFA22465146484601F01BF8484600F036FA0022054B1A70EAE6B10000008500000089010000CC80FF1FCE
:4005C0006C81FF1F241E0000FEE700BFF0B40022174611E050F82760F3B226F0FF0608E001EB420511F812406D78A5550132013BDBB2002BF4D101371D2FEBD9F0BC70477B
:40060000064B1B78DBB203F00701054A11701B09013213704422034B1A707047CF0100496E5800407658004008B50A46002100F0CAFF08BD38B509222B4B1A8018232B4AFE
:4006400013701925023215800232137040F2DF11023211800232137040F65F1102321180023213700222224B1A7008224FF040231A70032103F5007319701E4B1B78DBB267
:400680001D490B701D4B1A8041F25122023B1A8000240CE01A4B1B7803F0010343EA440404F003044FF4F07000F046FF013D0DB1032CEFD115B90320FFF786FF114B4FF49D
:4006C00080721A8007221A7000220F490A704820023108701A700222033B1A700B4A137843F00F03137038BD80400040824000400043004008010049A146004022420040FF
:40070000254200400440004006400040A243004008B500F04DFF08BD38B572B63B4A137843F00403137000240CE0394D630019194A0011462A44084691882858FFF774FFB9
:400740000134E4B2092CF0D900240CE03048A20011194B000344B3F84420196CD86BFFF7D7FF0134E4B2012CF0D92A494FF09040FFF72CFF284A137843F0020313701032C9
:40078000137843F002031370244C237843F040032370A2F58632513A137843F01003137008221F491F48FFF7B3FF08221E491F48FFF7AEFF08221E491E48FFF7A9FF0822B6
:4007C0001D491E48FFF7A4FF08221D491D48FFF79FFF0A221C491D48FFF79AFF1C4A137843F0080313701B4D61232B70FFF722FF81232B700122184B1A70FFF701FF0E22C1
:4008000021461648FFF784FF38BD00BFE84600402C1E00007800004803500140A0430040580600480251004060060048C251004068060048F25100407006004812510040C3
:4008400078060048225100408006004830510040224300400048004004000840B043004008B500F079FE03680C2B00D1FEE7FEE708B5094B1A681044084BC31A802B02DCC3
:40088000054B186005E000F067FE0C2303604FF0FF32104608BD00BFD080FF1FC881FF1F08B5104E104D16E029686B68AC68002204E051F8040B43F8040B0432A242F8D114
:4008C000E868002203E0002143F8041B04328242F9D11035013E002EE6D100F043FEFFF70BFDFEE701000000D81E000008B5104A104B1A60104A136843F4007313600023EF
:400900000AE0032B03D80D4A52F8231000E00C490C4A42F8231001332F2BF2D90A4B1A780A4B1A70074A0A4B1A60FFF7F5FE08BD0004FA050CED00E014ED00E0000000004E
:40094000610800000080FF1FBC760040C080FF1F08ED00E07222084B1A70202203F580731A7006225F3B1A70472210331A7000224E331A70704700BF8664004010B500F09F
:40098000E3FD04460A4A137843F02003137002F58072137843F010031370013A137843F01003137000F070F8204600F0D1FD10BD9664004008B5054B1B7823B9FFF7CAFFCB
:4009C0000122024B1A70FFF7D9FF08BD9581FF1F084B1B78DBB213F0200F06D0064A1078C0B213F01E0F02D17047002070470020704700BF6665004046650040034B1B7873
:400A000013F0040FFAD1024B18707047656500404565004038B5074B1B782BB938BDFFF7EDFF0134A4B201E005460024285D0028F5D138BD9581FF1F014B1B68186470474F
:400A400008ED00E04001C0B2014B1870704700BF00E400E00122014B1A60704700E100E00122014B1A60704780E100E010B50446FFF7F6FF2046FFF7DFFF0720FFF7E2FF6C
:400A8000FFF7E8FF10BD00BF054A137843F0020313701032137843F002031370704700BFA243004001BE704710B5044605E0084B186800F041FDA4F50044B4F5004FF6D807
:400AC000034B586800FB04F000F036FD10BD00BFD480FF1F70B504460E46074B1D681F2802D90020FFF7DEFF04F01F04103455F8240045F8246070BD08ED00E038B5044663
:400B00000D46072902D90020FFF7CCFF1F2C02D90020FFF7C7FF04F01F0000F1604000F564406D01EDB2057038BD00BF044A137803F0FD03400000F0020018431070704771
:400B400020510040024B1878C0F34000704700BF2151004010B50222114B1A7081220E3B1A70082202331A70042211331A70002401331C704FF400420A4B1A6007210F201B
:400B8000FFF7BCFF08490F20FFF7A4FF1022074B1A70074B1C70074B1C70074B1C7010BDD649004080E100E0BD0C0000AC81FF1FB281FF1FBA81FF1FB081FF1F08B500F09C
:400BC000C3FC064A137843F0040313701032137843F00403137000F0BBFC08BDA543004008B5074B1B7823B9FFF7B4FF0122044B1A70FFF7E3FF4FF40042024B1A6008BD74
:400C00009781FF1F00E100E02DE9F8434FF40049214BC3F80090DFF8A08098F800301F4CE3701F4F3B7823711E4E3378637130783B7843EA002001301B4D2B7803F0FE033C
:400C40002B7080B200F078FC00F07EFC174A137803F0FB0313701032137803F0FB03137000F076FC2B7843F002032B70E37888F80030E37888F8003023793B706379337084
:400C80002B7803F0EF032B70094BC3F800901022084B1A70BDE8F88380E100E0E480FF1FDB490040DC490040D6490040A543004080E200E0AC81FF1FCA49004038B5A54B73
:400CC0001C78A54B1B7813F0400F00F03A81E4B214F0010F00F01D819F4B1B78453B052B00F21481DFE813F006008200120112010600DF0004F0DF0504F00A04082C42D176
:400D0000954B1B78DBB2452B35D1944B1B7813F0FF0F10D0924B1B681B78DBB2914A137004228C4B1A7001228F4B1A7046228A4B1A702C46EDE08D4B1B7813F0020F0DD08C
:400D40008B4A137843F00A0313706022824B1A704FF40042874B1A602C46DAE0864A137843F0100313701022844B1A700422023B1A702C46CDE00022764B1A704A22764B25
:400D80001A702C46C5E00A2C2BD1794A137843F0A0031370754B1B7813F0020F14D06E4B1B7813F0080F01D0092300E00A23704A11780B4313706022674B1A704FF40042A7
:400DC0006C4B1A602C46A4E06B4A137843F0100313701022694B1A700422023B1A702C4697E00020FFF75EFE2C4692E014F0020F36D15D4B1A78D2B2584B1B78DBB29A42AE
:400E000010D2594A1378DBB255490968CB5CDBB254490B7004214F4B197013780133DBB2137076E0514B1B7813F0020F0CD0504A137843F00A0313706022474B1A704FF4E5
:400E400000424C4B1A6064E04B4A137843F0100313701022494B1A700422023B1A7058E0424B1B7813F0020F0CD0414A137843F09A0313706022384B1A704FF400423D4B68
:400E80001A6046E03C4A137843F01003137010223A4B1A700422023B1A70354A137843F09003137035E0364A1378DBB2354908682C490978C9B2C15413780133DBB2137047
:400EC0001278D2B2304B1B78DBB29A4203D21022204B1A701DE0254B1B7813F0020F0CD0234A137843F00903137060221A4B1A704FF400421F4B1A600BE01F4A137843F0DB
:400F0000100313700022134B1A7002E00020FFF7C9FD14F0200F1CD00F4B1B7813F0080F01D0012300E00223114A11780B431370114A137803F0EF0313701022064B1A7023
:400F400038BD054B1B7813F0100F02D11022024B1A7038BDD7490040AC81FF1FB181FF1FBC81FF1FD8490040B081FF1FB881FF1FB281FF1F80E100E0D6490040D9490040F6
:400F8000BA81FF1FB481FF1FB981FF1F1A4B1B78DBB2102B29D1194B1B7813F0080F26D14FF40042164B1A604000C0B229B140F001004922104B1A7002E045220E4B1A70D2
:400FC000104B1870012201331A700F4B1B7813F0010FFAD00C4B1B7803F00A030A2B08D11022054B1A700320704702207047012070470020704700BFAC81FF1FD949004091
:4010000080E100E0D8490040D74900400A4B1B7813F0040F0ED01023074A13700421023A1170064A1370064B1B7813F0210FFAD00020704702207047D9490040AC81FF1FD8
:40104000D7490040114B1B7813F0040F1BD0104B18700422013B1A7046220E4B1A700E4B1B7813F0010FFAD00B4B1B7813F0020F04D16022074B1A70002070476022054B64
:401080001A70032070470220704700BFD9490040D8490040AC81FF1FD7490040114B1B7813F0040F1BD0104B1B78DBB2492B05D100220E4B1A704A220B4B1A700B4B1B78D7
:4010C00013F0010FFAD00A4B1B78DBB218B11021064A117004E06021034A117000E0002318467047D9490040AC81FF1FD7490040D8490040044A137803F0FE0300F001005C
:4011000018431070704700BF20510040024A137843F080031370704775640040014B1870704700BF05640040014B1870704700BF45640040014B1870704700BF2564004094
:40114000014B1870704700BF35640040014B1870704700BF85640040014B1878704700BF65640040014B1878704700BF5564004008B501E0FFF7F6FFFFF7EEFF10F0100FA8
:40118000F8D108BD10B5134A137803F0C00343F009031370104C237843F001032370FF20FFF7BCFFFF20FFF7BFFF0020FFF7C2FF0020FFF7C5FF0020FFF7C8FF00F0C4F9DD
:4011C000237843F01003237000F0C2F9FFF7D0FF10BD00BF756400409564004008B5054B1B7823B9FFF7CEFF0122024B1A70FFF78DFF08BD9881FF1F024A137843F08003E9
:401200001370704777640040014B1870704700BF04640040014B1870704700BF44640040014B1870704700BF24640040014B1870704700BF3464004008B50C4A137803F070
:40124000C00343F0090313701D32137843F001031370FF20FFF7D8FFFF20FFF7DBFF0020FFF7DEFF0020FFF7E1FF08BD7764004008B5054B1B7823B9FFF7DEFF0122024BF2
:401280001A70FFF7B9FF08BD9981FF1F044A137803F09F03400100F0600018431070704700510040044A137803F0E703C00000F0180018431070704720510040044A13783D
:4012C00003F0E703C00000F0180018431070704700510040044A137803F0E703C00000F01800184310707047C0510040044A137803F0FC0300F0030018431070704700BFB6
:4013000000510040044A137803F0F303800000F00C00184310707047F0510040014B1878C009704783450040024A137843F080031370704777650040014B1880704700BF2A
:401340000C680040014B1880704700BF8C680040014B1880704700BF4C680040014B1880704700BF6C68004008B5104A137803F0C00343F009031370E13A137843F0010378
:4013800013700132137843F0010313704BF68030FFF7D2FF4BF68030FFF7D4FF0020FFF7D7FF0020FFF7DAFF08BD00BF7765004008B5054B1B7823B9FFF7D6FF0122024B8E
:4013C0001A70FFF7B1FF08BD9A81FF1F014B1B68D865704708ED00E04001C0B2014B1870704700BF07E400E08022014B1A60704700E100E08022014B1A60704780E100E01F
:4014000010B50446FFF7F6FF2046FFF7DFFF0720FFF7E2FFFFF7E8FF10BD00BF084A137843F0010313701032137843F00103137002F64D32137843F001031370704700BFC1
:40144000A3430040014B1870704700BF034F0040014B1880704700BF044F0040014B1880704700BF064F004008B5154A137803F0010313700232137803F0FC031370114BDD
:401480001A7802F0CF021A701A7842F030021A701A7802F0F0021A701A7842F00F021A70094A137843F0010313706320FFF7D0FF6320FFF7D3FF0020FFF7C4FF08BD00BFE6
:4014C000004F00400B4F0040014F004008B5054B1B7823B9FFF7C8FF0122024B1A70FFF79DFF08BD9B81FF1F014B1B685864704708ED00E04001C0B2014B1870704700BF5B
:4015000001E400E00222014B1A60704700E100E00222014B1A60704780E100E010B50446FFF7F6FF2046FFF7DFFF0720FFF7E2FFFFF7E8FF10BD00BF0230800803D000BFBB
:4015400001380046FCD17047EFF3108072B6704780F31088704700BF014B1868704700BF4C81FF1F0E4B70B51E460E4C0025E41AA410A54204D056F8253098470135F8E704
:4015800000F098FC084B094C1E46E41AA4100025A54204D056F8253098470135F8E770BDC01E0000C01E0000C01E0000C81E000010B5431E0A44914204D011F8014B03F85A
:4015C000014FF8E710BD03460244934202D003F8011BFAE7704700000EB400B54FF402719CB0ADF814106FF00041049107914FF6FF711DAB02900690084853F8042BADF8E7
:401600001610006802A9019300F064F8029B00221A701CB05DF804EB03B070474C81FF1F2DE9F0478E6882469E420C46914698463ED88A8912F4906F3AD025680969022395
:401640006F1A656905EB450595FBF3F57B1C43449D4238BF1D4653050FD5294600F040FB064698B13A462169FFF7A2FFA38923F4906343F08003A38113E02A4600F08EFB12
:40168000064670B92169504600F0DEFA0C23CAF80030A3894FF0FF3043F04003A381BDE8F08726613E44266046466561ED1BA560464528BF464649463246206800F0A8FA4F
:4016C000A36800209B1BA36023681E442660BDE8F08700002DE9F04F9DB003938B8980461C060D4616460DD50B695BB9402100F0F7FA2860286118B90C23C8F80030CDE03A
:4017000040236B610023099320238DF82930DFF89CB130238DF82A3037463C4614F8013B1BB9B7EB060910D003E0252BF9D02746F3E74B46324629464046FFF771FF0130C0
:4017400000F0A780099B4B4409933B78002B00F0A08000234FF0FF3204930793059206938DF853301A930126052221784E4800F041FA671C049B38B14B4A3C46801A06FA88
:4017800000F018430490EFE7D90644BF20228DF853201A0744BF2B228DF8532022782A2A03D0079A00210A200BE0039A111D12680391002A10DA524243F002000792049074
:4017C0000BE027463B780134303B092B03D800FB02320121F5E701B107923B782E2B1ED17B782A2B0AD1039B02371A1D1B680392002BB8BF4FF0FF33059310E00023194656
:401800000593781C0A2407463A780130303A092A03D804FB01210123F5E703B1059103223978224800F0E6F940B14023CBEB000003FA00F0049B0137184304903978062296
:401840001B487E1C8DF8281000F0D4F988B1194B33B9039B073323F007030833039314E003AB00932A46144B04A94046AFF3008007E003AB00932A460F4B04A9404600F034
:4018800093F8B0F1FF3F824603D0099B5344099342E7AB895B0601D4099801E04FF0FF301DB0BDE8F08F00BF7E1E0000841E0000881E000000000000211600002DE9F047B1
:4018C00091461F460A698B6806469342B8BF1346C9F8003091F843200C46DDF8208012B10133C9F800302368990642BFD9F800300233C9F80030256815F0060510D104F104
:40190000190A07E00123524639463046C04701301AD00135E368D9F800209B1A9D42F1DB94F843302268003318BF012392060FD5E118302081F843005A1C94F84510224403
:40194000023382F8431003E04FF0FF30BDE8F08704F1430239463046C0470130F4D02268D9F80050E36802F00602042A08BF5D1B2269A3680CBF25EAE57500259342C4BF29
:401980009B1AED184FF000091A344D4509D00123224639463046C0470130D5D009F10109F3E70020BDE8F0872DE9F04317460A7E85B06E2A984606460C460C9B01F1430E93
:4019C00000F0AE8011D8632A22D009D8002A00F0BB80582A40F0CA8081F84520834955E0642A1ED0692A1CD0C0E0732A00F0B08009D86F2A2ED0702A40F0B8800A6842F0DA
:401A000020020A603EE0752A24D0782A3AD0ADE01A6801F14205111D1960136884F84230A8E021681A6811F0800F02D0111D196008E011F0400F02F10401196002D0B2F9A3
:401A4000003000E01368002B3CDA2D225B4284F8432037E021681A6811F0800F02D0111D196007E011F0400F02F10401196001D0138800E01368227E5C496F2A14BF0A2258
:401A800008221BE078225A4984F845202268186812F0800F00F104051D6003D1550601D5038800E00368D00744BF42F0200222601BB9226822F0200222601022002084F864
:401AC000430001E049490A226568002DA56008DB206820F0040020602BB9002D7DD175460CE0002B79D07546B3FBF2F002FB1033CB5C05F8013D03460028F5D1082A0BD15A
:401B00002368DA0708D5236962689A42DEBF302305F8013C05F1FF35C5EB0E0323612EE008681A6810F0800F496903D0101D1860136808E010F0400F02F10400186013683C
:401B400001D0198000E0196000232361754616E01A68111D1960156800216268284600F049F808B1401B6060636804E004F1420584F8422001232361002384F84330CDF8FE
:401B800000803B4603AA21463046FFF797FE013002D14FF0FF3026E023692A4639463046C0470130F5D023689B0710D5002504F1190907E001234A4639463046C047013093
:401BC000E7D00135E368039A9B1A9D42F2DBE068039B9842B8BF184605E00B7804F1420584F842308AE705B0BDE8F0838F1E0000A01E000010B5C9B202449042034605D069
:401C00001C7801308C42F8D1184610BD002010BD884210B501EB020301D8421E0BE09842FBD28118D21AD34204D013F8014D01F8014DF8E710BD994204D011F8014B02F82D
:401C4000014FF8E710BD000038B50546002944D051F8043C0C1F002BB8BFE41800F0D4F81E4A1368114613B96360146030E0A3420DD92268A018834201BF18685B68121899
:401C8000226063600C6023E0A24203D813465A68002AF9D118681918A1420BD12168014458188242196013D110685268014419605A600DE002D90C232B6009E021686018BD
:401CC000824201BF106852680918216062605C602846BDE8384000F098B838BDA081FF1F70B5CD1C25F0030508350C2D38BF0C25002D064601DBA94202D90C23336046E043
:401D000000F082F8234B1C681A462146A1B10B685B1B0ED40B2B03D90B60CC18CD501EE08C420BBF63684B681360636018BF0C4615E00C464968E9E7174C23681BB9304672
:401D400000F052F820602946304600F04DF8431C18D0C41C24F00304A0420DD12560304600F053F804F10B00231D20F00700C31A0ED05A42E25070BD211A304600F034F87D
:401D80000130EBD10C233360304600F03EF8002070BD00BFA081FF1F9C81FF1FF8B5074615460E4621B91146BDE8F840FFF798BF1AB9FFF749FF2846F8BD00F027F8854244
:401DC0000ED929463846FFF78BFF044650B131462A46FFF7EDFB31463846FFF735FF01E03046F8BD2046F8BD38B5064C0023054608462360FEF73CFD431C02D1236803B11C
:401E00002B6038BDC081FF1F7047704751F8040C0028BEBF091851F8043CC018043870470000000025640D0A00000000C84900401900004F00400C0040510040300000003C
:401E40000140000680060140800900140140000280160140800500400140000A004C014000020050014020000006014058050048800000160140D805004880004300232D52
:401E8000302B2000686C4C006566674546470030313233343536373839414243444546003031323334353637383961626364656600000000F8B500BFF8BC08BC9E46704700
:401EC0004D000000ED080000F8B500BFF8BC08BC9E46704729000000E81E0000C880FF1F88000000780000000000000001006901C881FF1F0000E02EC05D00001800000077
:401F000000366E01008102080400000000000000000000000000000000000000000000000000000000000000000000007C1E000000000000000000000000000000000000D3
:401F40000000000000000000000000000000000000000000000000000000000000000000000000000000000000000000EC80FF1F00000000000000000000000000000000D7
:401F80000000000000000000000000000000000000000000000000000000000000000000000000000000000000000000000000000000000000000000000000000000000021
:401FC00000000000000000000000000000000000000000000000000000000000000000000000000000000000000000000000000000000000000000000000000000000000E1
:4020000000000000000000000000000000000000000000000000000000000000000000000000000000000000000000000000000000000000000000000000000000000000A0
:402040000000000000000000000000000000000000000000000000000000000000000000000000000000000000000000000000000000000000000000000000000000000060
:020000040003F7
:0200000480007A
:4000000001450040024F00400852004002640040026500405A040140390501401E0601403B07014001090140040A0140030B0140561401404D1501401B1601404F1701406C
:40004000051B014003400140064101400D420140064301400245014004460140034701400848014015490140094C0140094D014004500140025101401F0201300A4B0084AA
:4000800008800980112019021C0160027820850F8672850F863802020A020E0511012204260127033002310232013301340440404103455046104702481A49FF4AFF4BFF09
:4000C0004DA04F045018580459045A045C225D025F01604062C06440654066C068C06AC06CC06EC08001830888018E049301940895049A029B079E04A202A401B001B104A8
:40010000B204B301B402B502B608B708BE54C040C102C5D1C650C702C81BC9FFCAFFCBFFCDA0CF04D018D280D407D804D904DA04DB04DC21DD22DF01E040E2C0E440E54031
:40014000E6C0E8C0EAC0ECC0EEC000200280030204820704080109010A400C040F0A10A015041702182019011B201E481F842010210224402688270A2B1031023620370A5C
:400180003C02410543024604470248804D014E20502051045410560457145C505D015E08740186089D01A901C0DBC2E0C43CCA02CCE1CE80D0A3D6F0E201E8049301B10164
:4001C000C020C106C515C702C813C9FFCAFFCBFFCDAFCE0FCF04D018D280D904DA04DB04DC20DD20DF01E040E2C0E440E540E6C0E8C0EAC0ECC0EEC00504068107080C108E
:400200000D020E261481150517101D041E4621012440250226282C012D012F283101341036893EAA4004460448A84F20500852045E406C016D046E206F047101762B77189C
:4002400079087B2093089482950698019C049F04A101A701A810AF80B720C0F0C2F0C4F0CAF0CCF1CEF0D024D224D610E804E844B908BF04D904DF0127208320E8040003E5
:40028000020C0301050210031204180319031A04200A210322042A082E05300F370339803A023F40580459045C015F0180208140821084408610881089148A608C068E09D6
:4002C0008F209070911C930296029703980899109A039E08A209A470A50CA711A909AA06AB10AC08AD10AE05AF0CB008B270B31FB407B540B720BA20BE01BF10C015C102F8
:40030000C5C0C6B0C7E0C82AC9FFCAFFCBFFCEF0CF44D00CD401D804D904DA04DB04DC11DD11DF01E6C0EA40EB020102041005040680070209200A800D680E200F421002F6
:40034000132215121601172419021B021C101D301E401F2020022684270829022A012D102F223110340436143702380A39023C013EA2452046014C034E404F0256225C015D
:400380005E505F088004830286808D408E10900A9340941099049B249C049E80A108A401A680A722AC84AD08C0F8C2FAC4FBCA71CCE4CEB3D030D210D6F0E008E680E820C4
:4003C000EA05EC0886069201A202A604B004B202B401C005C704C9FFCA07CBFFCC40CD20CEF0CF05D008D280D804DA04DB04DD01DF01E040E1A8E240E320000404100504A2
:400400000680070109020C500D040E0210A0148016011718180419081A401B101C081DA01F012488262427202C482F223480362639013B023C403E04441045A14701480147
:400440004E084F0250095108520257085D0164026502670871028240850290409108920493489484981299049A019B1C9C849E80A0A0A101A209A680A719A842AA20AB205F
:40048000AD04AF40C0F4C2E8C4FCCAF0CCF0CE50D0F0D228D680D8B0E008E680E820EA05EC0833803680CC3055045E01A680A780D440D68012803E1063018301860196015F
:4004C000A504A680A780C410CE20D640E29096109840A504A780AC40EE106208D80250105720AA08D406A810B720E8028104878096109840A504A780E220E610021013026B
:40050000164058407220771086508A2098409B109F02AA10AB10B302C010C430D480DC80DE20E050EAA0108013201708670878107F40C40ED801DE03874088809780A08090
:40054000AB28AF04B010E601E80400070A0710031A03000F03C0000001100200020801001018000020040000341C0821030000403C3F0000340008040C273018033C0002AB
:400580003000004000000823041F0338004038000000A00200000110600200000000000000FFFFFF00A00004180000000000021004040404111000014000C0004040C00078
:4005C000C000C000C000C000000000000000000000000000000000004400020088100200CC0001000000CC10004000033000CC0CFC0C00233C10C000CC0030101021000EA5
:400600003000000820210006C01000603C0F0300000A2020000040002403060001E0000C12FFFFFF62A0F0410C00000018000400040404041111000100000000000040023A
:4006400000103010001010120000000000000000000000000000000000FFFF008400000000181B0003000000003C3C0030000000008B8B0080000000003B3B00200000006C
:400680008200018202000200000000000000000000000000000000000000000000000000000000000000000000000000000000000000000000000000000000000000000031
:4006C00000000000000000000000000000000000000000000000000000000000000000000000000000000000000000000000000000000000000000000000000000000000FA
:4007000000000000000000000000000000000000000000000000000000000000000000000000000000000000000000000000000000000000000000000000000000000000B9
:400740000000000000000000000000000000000000000000000000000000000000000000000000000000000000000000000000000000000000000000000000000000000079
:400780000000000000000000000000000000000000000000000000000000000000000000000000000000000000000000000000000000000000000000000000000000000039
:0200000490006A
:0400000000004005B7
:0200000490105A
:04000000BC90ACAF55
:0200000490303A
:0200000067DABD
:0200000490402A
:4000000000000000000000000000000000000000000000000000000000000000000000000000000000000000000000000000000000000000000000000000000000000000C0
:400040000000000000000000000000000000000000000000000000000000000000000000000000000000000000000000000000000000000000000000000000000000000080
:400080000000000000000000000000000000000000000000000000000000000000000000000000000000000000000000000000000000000000000000000000000000000040
:4000C0000000000000000000000000000000000000000000000000000000000000000000000000000000000000000000000000000000000000000000000000000000000000
:0200000490501A
:0C00000000012E16106900012E23784329
:00000001FF